{"abi":[{"type":"constructor","inputs":[],"stateMutability":"nonpayable"},{"type":"function","name":"createOrUpdateAchievement","inputs":[{"name":"id","type":"uint256","internalType":"uint256"},{"name":"key_sets","type":"string[]","internalType":"string[]"},{"name":"revoked_key_sets","type":"string[]","internalType":"string[]"},{"name":"cannonical_id","type":"string","internalType":"string"},{"name":"validFrom","type":"uint256","internalType":"uint256"},{"name":"validUntil","type":"uint256","internalType":"uint256"},{"name":"image","type":"string","internalType":"string"},{"name":"meta","type":"string","internalType":"string"}],"outputs":[],"stateMutability":"nonpayable"},{"type":"function","name":"getAchievement","inputs":[{"name":"id","type":"uint256","internalType":"uint256"}],"outputs":[{"name":"","type":"tuple","internalType":"struct AchievementCredentialRegistry.Achievement","components":[{"name":"id","type":"uint256","internalType":"uint256"},{"name":"key_sets","type":"string[]","internalType":"string[]"},{"name":"revoked_key_sets","type":"string[]","internalType":"string[]"},{"name":"cannonical_id","type":"string","internalType":"string"},{"name":"validFrom","type":"uint256","internalType":"uint256"},{"name":"validUntil","type":"uint256","internalType":"uint256"},{"name":"image","type":"string","internalType":"string"},{"name":"meta","type":"string","internalType":"string"}]}],"stateMutability":"view"},{"type":"function","name":"revokeAchievement","inputs":[{"name":"id","type":"uint256","internalType":"uint256"}],"outputs":[],"stateMutability":"nonpayable"},{"type":"event","name":"AchievementAdded","inputs":[{"name":"id","type":"uint256","indexed":false,"internalType":"uint256"},{"name":"cannonical_id","type":"string","indexed":false,"internalType":"string"}],"anonymous":false},{"type":"event","name":"AchievementRevoked","inputs":[{"name":"id","type":"uint256","indexed":false,"internalType":"uint256"}],"anonymous":false}],"bytecode":{"object":"0x6080604052348015600f57600080fd5b5060018055610e57806100236000396000f3fe608060405234801561001057600080fd5b50600436106100415760003560e01c80632e9cbbbd1461004657806379039bc41461005b578063f2ccc5431461006e575b600080fd5b6100596100543660046108b1565b610097565b005b610059610069366004610a29565b61019a565b61008161007c3660046108b1565b6103bf565b60405161008e9190610bd4565b60405180910390f35b60008181526020819052604081205490036100f95760405162461bcd60e51b815260206004820152601a60248201527f416368696576656d656e7420646f6573206e6f7420657869737400000000000060448201526064015b60405180910390fd5b60008181526020819052604081208181559061011860018301826107ce565b6101266002830160006107ce565b6101346003830160006107ef565b6004820160009055600582016000905560068201600061015491906107ef565b6101626007830160006107ef565b50506040518181527ff6101ae85285c0d3fbc8a8a853b81f7ec1a9c72ac3b2440cd008ce3497df2a0c9060200160405180910390a150565b6101a484846107a6565b6101fc5760405162461bcd60e51b815260206004820152602360248201527f496e76616c696420616368696576656d656e742076616c6964697479207065726044820152621a5bd960ea1b60648201526084016100f0565b83600003610208574293505b8760000361033d576001805490600061022083610c91565b90915550604080516101008101825282815260208082018b81528284018b9052606083018a90526080830189905260a0830188905260c0830187905260e083018690526000858152808352939093208251815592518051949c50919361028c9260018501920190610829565b50604082015180516102a8916002840191602090910190610829565b50606082015160038201906102bd9082610d41565b506080820151600482015560a0820151600582015560c082015160068201906102e69082610d41565b5060e082015160078201906102fb9082610d41565b509050507ff17f92196cd6983957acf186d3c32425568737aac0a230c7cd0b9068addcc5d08886604051610330929190610e00565b60405180910390a16103b5565b600088815260208181526040909120885190916103619160018401918b0190610829565b50865161037790600283019060208a0190610829565b50600381016103868782610d41565b506004810185905560058101849055600681016103a38482610d41565b50600781016103b28382610d41565b50505b5050505050505050565b61040760405180610100016040528060008152602001606081526020016060815260200160608152602001600081526020016000815260200160608152602001606081525090565b600082815260208181526040808320815161010081018352815481526001820180548451818702810187019095528085529195929486810194939192919084015b828210156104f457838290600052602060002001805461046790610cb8565b80601f016020809104026020016040519081016040528092919081815260200182805461049390610cb8565b80156104e05780601f106104b5576101008083540402835291602001916104e0565b820191906000526020600020905b8154815290600101906020018083116104c357829003601f168201915b505050505081526020019060010190610448565b50505050815260200160028201805480602002602001604051908101604052809291908181526020016000905b828210156105cd57838290600052602060002001805461054090610cb8565b80601f016020809104026020016040519081016040528092919081815260200182805461056c90610cb8565b80156105b95780601f1061058e576101008083540402835291602001916105b9565b820191906000526020600020905b81548152906001019060200180831161059c57829003601f168201915b505050505081526020019060010190610521565b5050505081526020016003820180546105e590610cb8565b80601f016020809104026020016040519081016040528092919081815260200182805461061190610cb8565b801561065e5780601f106106335761010080835404028352916020019161065e565b820191906000526020600020905b81548152906001019060200180831161064157829003601f168201915b50505050508152602001600482015481526020016005820154815260200160068201805461068b90610cb8565b80601f01602080910402602001604051908101604052809291908181526020018280546106b790610cb8565b80156107045780601f106106d957610100808354040283529160200191610704565b820191906000526020600020905b8154815290600101906020018083116106e757829003601f168201915b5050505050815260200160078201805461071d90610cb8565b80601f016020809104026020016040519081016040528092919081815260200182805461074990610cb8565b80156107965780601f1061076b57610100808354040283529160200191610796565b820191906000526020600020905b81548152906001019060200180831161077957829003601f168201915b5050505050815250509050919050565b600081158015906107b75750818310155b156107c4575060006107c8565b5060015b92915050565b50805460008255906000526020600020908101906107ec919061087f565b50565b5080546107fb90610cb8565b6000825580601f1061080b575050565b601f0160209004906000526020600020908101906107ec919061089c565b82805482825590600052602060002090810192821561086f579160200282015b8281111561086f578251829061085f9082610d41565b5091602001919060010190610849565b5061087b92915061087f565b5090565b8082111561087b57600061089382826107ef565b5060010161087f565b5b8082111561087b576000815560010161089d565b6000602082840312156108c357600080fd5b5035919050565b634e487b7160e01b600052604160045260246000fd5b604051601f8201601f1916810167ffffffffffffffff81118282101715610909576109096108ca565b604052919050565b600082601f83011261092257600080fd5b813567ffffffffffffffff81111561093c5761093c6108ca565b61094f601f8201601f19166020016108e0565b81815284602083860101111561096457600080fd5b816020850160208301376000918101602001919091529392505050565b600082601f83011261099257600080fd5b813567ffffffffffffffff8111156109ac576109ac6108ca565b8060051b6109bc602082016108e0565b918252602081850181019290810190868411156109d857600080fd5b6020860192505b83831015610a1f57823567ffffffffffffffff8111156109fe57600080fd5b610a0d886020838a0101610911565b835250602092830192909101906109df565b9695505050505050565b600080600080600080600080610100898b031215610a4657600080fd5b88359750602089013567ffffffffffffffff811115610a6457600080fd5b610a708b828c01610981565b975050604089013567ffffffffffffffff811115610a8d57600080fd5b610a998b828c01610981565b965050606089013567ffffffffffffffff811115610ab657600080fd5b610ac28b828c01610911565b9550506080890135935060a0890135925060c089013567ffffffffffffffff811115610aed57600080fd5b610af98b828c01610911565b92505060e089013567ffffffffffffffff811115610b1657600080fd5b610b228b828c01610911565b9150509295985092959890939650565b6000815180845260005b81811015610b5857602081850181015186830182015201610b3c565b506000602082860101526020601f19601f83011685010191505092915050565b600082825180855260208501945060208160051b8301016020850160005b83811015610bc857601f19858403018852610bb2838351610b32565b6020988901989093509190910190600101610b96565b50909695505050505050565b6020815281516020820152600060208301516101006040840152610bfc610120840182610b78565b90506040840151601f19848303016060850152610c198282610b78565b9150506060840151601f19848303016080850152610c378282610b32565b915050608084015160a084015260a084015160c084015260c0840151601f198483030160e0850152610c698282610b32565b91505060e0840151601f1984830301610100850152610c888282610b32565b95945050505050565b600060018201610cb157634e487b7160e01b600052601160045260246000fd5b5060010190565b600181811c90821680610ccc57607f821691505b602082108103610cec57634e487b7160e01b600052602260045260246000fd5b50919050565b601f821115610d3c57806000526020600020601f840160051c81016020851015610d195750805b601f840160051c820191505b81811015610d395760008155600101610d25565b50505b505050565b815167ffffffffffffffff811115610d5b57610d5b6108ca565b610d6f81610d698454610cb8565b84610cf2565b6020601f821160018114610da35760008315610d8b5750848201515b600019600385901b1c1916600184901b178455610d39565b600084815260208120601f198516915b82811015610dd35787850151825560209485019460019092019101610db3565b5084821015610df15786840151600019600387901b60f8161c191681555b50505050600190811b01905550565b828152604060208201526000610e196040830184610b32565b94935050505056fea26469706673582212205857813b944a4b1353944b25d7aa5ec4944866295c85aa75f8933e960a48679a64736f6c634300081a0033","linkReferences":{}},"methodIdentifiers":{"createOrUpdateAchievement(uint256,string[],string[],string,uint256,uint256,string,string)":"79039bc4","getAchievement(uint256)":"f2ccc543","revokeAchievement(uint256)":"2e9cbbbd"},"id":25}