{"abi":[{"type":"constructor","inputs":[],"stateMutability":"nonpayable"},{"type":"function","name":"createOrUpdateAchievement","inputs":[{"name":"id","type":"uint256","internalType":"uint256"},{"name":"key_sets","type":"string[]","internalType":"string[]"},{"name":"revoked_key_sets","type":"string[]","internalType":"string[]"},{"name":"cannonical_id","type":"string","internalType":"string"},{"name":"validFrom","type":"uint256","internalType":"uint256"},{"name":"validUntil","type":"uint256","internalType":"uint256"},{"name":"image","type":"string","internalType":"string"},{"name":"meta","type":"string","internalType":"string"},{"name":"profile_id","type":"string","internalType":"string"},{"name":"owner_type","type":"uint8","internalType":"enum AchievementCredentialRegistry.OwnerType"}],"outputs":[{"name":"","type":"uint256","internalType":"uint256"}],"stateMutability":"nonpayable"},{"type":"function","name":"getAchievement","inputs":[{"name":"id","type":"uint256","internalType":"uint256"}],"outputs":[{"name":"","type":"tuple","internalType":"struct AchievementCredentialRegistry.Achievement","components":[{"name":"id","type":"uint256","internalType":"uint256"},{"name":"key_sets","type":"string[]","internalType":"string[]"},{"name":"revoked_key_sets","type":"string[]","internalType":"string[]"},{"name":"cannonical_id","type":"string","internalType":"string"},{"name":"validFrom","type":"uint256","internalType":"uint256"},{"name":"validUntil","type":"uint256","internalType":"uint256"},{"name":"image","type":"string","internalType":"string"},{"name":"meta","type":"string","internalType":"string"},{"name":"profile_id","type":"string","internalType":"string"},{"name":"owner_id","type":"string","internalType":"string"},{"name":"owner_type","type":"uint8","internalType":"enum AchievementCredentialRegistry.OwnerType"}]}],"stateMutability":"view"},{"type":"function","name":"getAchievementsByProfileId","inputs":[{"name":"ownerId","type":"string","internalType":"string"}],"outputs":[{"name":"","type":"tuple[]","internalType":"struct AchievementCredentialRegistry.Achievement[]","components":[{"name":"id","type":"uint256","internalType":"uint256"},{"name":"key_sets","type":"string[]","internalType":"string[]"},{"name":"revoked_key_sets","type":"string[]","internalType":"string[]"},{"name":"cannonical_id","type":"string","internalType":"string"},{"name":"validFrom","type":"uint256","internalType":"uint256"},{"name":"validUntil","type":"uint256","internalType":"uint256"},{"name":"image","type":"string","internalType":"string"},{"name":"meta","type":"string","internalType":"string"},{"name":"profile_id","type":"string","internalType":"string"},{"name":"owner_id","type":"string","internalType":"string"},{"name":"owner_type","type":"uint8","internalType":"enum AchievementCredentialRegistry.OwnerType"}]}],"stateMutability":"view"},{"type":"function","name":"revokeAchievement","inputs":[{"name":"id","type":"uint256","internalType":"uint256"}],"outputs":[],"stateMutability":"nonpayable"},{"type":"event","name":"AchievementAdded","inputs":[{"name":"id","type":"uint256","indexed":false,"internalType":"uint256"},{"name":"cannonical_id","type":"string","indexed":false,"internalType":"string"}],"anonymous":false},{"type":"event","name":"AchievementRevoked","inputs":[{"name":"id","type":"uint256","indexed":false,"internalType":"uint256"}],"anonymous":false},{"type":"event","name":"AchievementUpdated","inputs":[{"name":"id","type":"uint256","indexed":false,"internalType":"uint256"},{"name":"cannonical_id","type":"string","indexed":false,"internalType":"string"}],"anonymous":false}],"bytecode":{"object":"0x6080604052348015600f57600080fd5b506001600355611dcc806100246000396000f3fe608060405234801561001057600080fd5b506004361061004c5760003560e01c80632e9cbbbd14610051578063c8923bbd14610066578063f2ccc5431461008c578063f6b8ca4a146100ac575b600080fd5b61006461005f3660046115ba565b6100cc565b005b610079610074366004611742565b6101f5565b6040519081526020015b60405180910390f35b61009f61009a3660046115ba565b61068f565b6040516100839190611a52565b6100bf6100ba366004611a6c565b610b85565b6040516100839190611aa8565b600081815260208190526040812054900361012e5760405162461bcd60e51b815260206004820152601a60248201527f416368696576656d656e7420646f6573206e6f7420657869737400000000000060448201526064015b60405180910390fd5b60008181526020819052604081208181559061014d600183018261146e565b61015b60028301600061146e565b61016960038301600061148f565b60048201600090556005820160009055600682016000610189919061148f565b61019760078301600061148f565b6101a560088301600061148f565b6101b360098301600061148f565b50600a01805460ff191690556040518181527ff6101ae85285c0d3fbc8a8a853b81f7ec1a9c72ac3b2440cd008ce3497df2a0c9060200160405180910390a150565b60006102018787611190565b6102595760405162461bcd60e51b815260206004820152602360248201527f496e76616c696420616368696576656d656e742076616c6964697479207065726044820152621a5bd960ea1b6064820152608401610125565b6000610264336111b8565b905087600003610272574297505b8b60000361044f576003805490600061028a83611b23565b919050559b506040518061016001604052808d81526020018c81526020018b81526020018a81526020018981526020018881526020018781526020018681526020018581526020018281526020018460008111156102ea576102ea61192f565b905260008d815260208181526040909120825181558282015180519192610319926001850192909101906114c9565b50604082015180516103359160028401916020909101906114c9565b506060820151600382019061034a9082611bc5565b506080820151600482015560a0820151600582015560c082015160068201906103739082611bc5565b5060e082015160078201906103889082611bc5565b50610100820151600882019061039e9082611bc5565b5061012082015160098201906103b49082611bc5565b50610140820151600a8201805460ff191660018380156103d6576103d661192f565b02179055509050506001846040516103ee9190611c83565b908152604051908190036020908101822080546001810182556000918252919020018d90557ff17f92196cd6983957acf186d3c32425568737aac0a230c7cd0b9068addcc5d090610442908e908c90611c9f565b60405180910390a161067f565b60008060008e8152602001908152602001600020905081805190602001208160090160405161047e9190611cb8565b6040518091039020146104d35760405162461bcd60e51b815260206004820152601e60248201527f4f6e6c79207468652073616d65206f776e65722063616e2075706461746500006044820152606401610125565b6105698160080180546104e590611b3c565b80601f016020809104026020016040519081016040528092919081815260200182805461051190611b3c565b801561055e5780601f106105335761010080835404028352916020019161055e565b820191906000526020600020905b81548152906001019060200180831161054157829003601f168201915b50505050508e611399565b8b5161057e90600183019060208f01906114c9565b508a5161059490600283019060208e01906114c9565b50600381016105a38b82611bc5565b506004810189905560058101889055600681016105c08882611bc5565b50600781016105cf8782611bc5565b50600881016105de8682611bc5565b50600981016105ed8382611bc5565b50600a8101805485919060ff1916600183801561060c5761060c61192f565b02179055506001856040516106219190611c83565b908152604051908190036020908101822080546001810182556000918252919020018e90557fc5c4d7a4dfe15f92a8edb63be8d391c47d0b521c2597bcd9fddb2ece27bac7b490610675908f908d90611c9f565b60405180910390a1505b50999a9950505050505050505050565b61069761151f565b600082815260208181526040808320815161016081018352815481526001820180548451818702810187019095528085529195929486810194939192919084015b828210156107845783829060005260206000200180546106f790611b3c565b80601f016020809104026020016040519081016040528092919081815260200182805461072390611b3c565b80156107705780601f1061074557610100808354040283529160200191610770565b820191906000526020600020905b81548152906001019060200180831161075357829003601f168201915b5050505050815260200190600101906106d8565b50505050815260200160028201805480602002602001604051908101604052809291908181526020016000905b8282101561085d5783829060005260206000200180546107d090611b3c565b80601f01602080910402602001604051908101604052809291908181526020018280546107fc90611b3c565b80156108495780601f1061081e57610100808354040283529160200191610849565b820191906000526020600020905b81548152906001019060200180831161082c57829003601f168201915b5050505050815260200190600101906107b1565b50505050815260200160038201805461087590611b3c565b80601f01602080910402602001604051908101604052809291908181526020018280546108a190611b3c565b80156108ee5780601f106108c3576101008083540402835291602001916108ee565b820191906000526020600020905b8154815290600101906020018083116108d157829003601f168201915b50505050508152602001600482015481526020016005820154815260200160068201805461091b90611b3c565b80601f016020809104026020016040519081016040528092919081815260200182805461094790611b3c565b80156109945780601f1061096957610100808354040283529160200191610994565b820191906000526020600020905b81548152906001019060200180831161097757829003601f168201915b505050505081526020016007820180546109ad90611b3c565b80601f01602080910402602001604051908101604052809291908181526020018280546109d990611b3c565b8015610a265780601f106109fb57610100808354040283529160200191610a26565b820191906000526020600020905b815481529060010190602001808311610a0957829003601f168201915b50505050508152602001600882018054610a3f90611b3c565b80601f0160208091040260200160405190810160405280929190818152602001828054610a6b90611b3c565b8015610ab85780601f10610a8d57610100808354040283529160200191610ab8565b820191906000526020600020905b815481529060010190602001808311610a9b57829003601f168201915b50505050508152602001600982018054610ad190611b3c565b80601f0160208091040260200160405190810160405280929190818152602001828054610afd90611b3c565b8015610b4a5780601f10610b1f57610100808354040283529160200191610b4a565b820191906000526020600020905b815481529060010190602001808311610b2d57829003601f168201915b5050509183525050600a82015460209091019060ff168015610b6e57610b6e61192f565b8015610b7c57610b7c61192f565b90525092915050565b60606000600183604051610b999190611c83565b9081526040805191829003602090810183208054808302850183019093528284529190830182828015610beb57602002820191906000526020600020905b815481526020019060010190808311610bd7575b50505050509050600081516001600160401b03811115610c0d57610c0d6115d3565b604051908082528060200260200182016040528015610c4657816020015b610c3361151f565b815260200190600190039081610c2b5790505b50905060005b825181101561118857600080848381518110610c6a57610c6a611d2d565b60200260200101518152602001908152602001600020604051806101600160405290816000820154815260200160018201805480602002602001604051908101604052809291908181526020016000905b82821015610d67578382906000526020600020018054610cda90611b3c565b80601f0160208091040260200160405190810160405280929190818152602001828054610d0690611b3c565b8015610d535780601f10610d2857610100808354040283529160200191610d53565b820191906000526020600020905b815481529060010190602001808311610d3657829003601f168201915b505050505081526020019060010190610cbb565b50505050815260200160028201805480602002602001604051908101604052809291908181526020016000905b82821015610e40578382906000526020600020018054610db390611b3c565b80601f0160208091040260200160405190810160405280929190818152602001828054610ddf90611b3c565b8015610e2c5780601f10610e0157610100808354040283529160200191610e2c565b820191906000526020600020905b815481529060010190602001808311610e0f57829003601f168201915b505050505081526020019060010190610d94565b505050508152602001600382018054610e5890611b3c565b80601f0160208091040260200160405190810160405280929190818152602001828054610e8490611b3c565b8015610ed15780601f10610ea657610100808354040283529160200191610ed1565b820191906000526020600020905b815481529060010190602001808311610eb457829003601f168201915b505050505081526020016004820154815260200160058201548152602001600682018054610efe90611b3c565b80601f0160208091040260200160405190810160405280929190818152602001828054610f2a90611b3c565b8015610f775780601f10610f4c57610100808354040283529160200191610f77565b820191906000526020600020905b815481529060010190602001808311610f5a57829003601f168201915b50505050508152602001600782018054610f9090611b3c565b80601f0160208091040260200160405190810160405280929190818152602001828054610fbc90611b3c565b80156110095780601f10610fde57610100808354040283529160200191611009565b820191906000526020600020905b815481529060010190602001808311610fec57829003601f168201915b5050505050815260200160088201805461102290611b3c565b80601f016020809104026020016040519081016040528092919081815260200182805461104e90611b3c565b801561109b5780601f106110705761010080835404028352916020019161109b565b820191906000526020600020905b81548152906001019060200180831161107e57829003601f168201915b505050505081526020016009820180546110b490611b3c565b80601f01602080910402602001604051908101604052809291908181526020018280546110e090611b3c565b801561112d5780601f106111025761010080835404028352916020019161112d565b820191906000526020600020905b81548152906001019060200180831161111057829003601f168201915b5050509183525050600a82015460209091019060ff1680156111515761115161192f565b801561115f5761115f61192f565b8152505082828151811061117557611175611d2d565b6020908102919091010152600101610c4c565b509392505050565b600081158015906111a15750818310155b156111ae575060006111b2565b5060015b92915050565b604080518082018252601081526f181899199a1a9b1b9c1cb0b131b232b360811b60208201528151602a80825260608281019094526001600160a01b0385169291600091602082018180368337019050509050600360fc1b8160008151811061122357611223611d2d565b60200101906001600160f81b031916908160001a905350600f60fb1b8160018151811061125257611252611d2d565b60200101906001600160f81b031916908160001a90535060005b6014811015611390578260048561128484600c611d43565b6020811061129457611294611d2d565b1a60f81b6001600160f81b031916901c60f81c60ff16815181106112ba576112ba611d2d565b01602001516001600160f81b031916826112d5836002611d56565b6112e0906002611d43565b815181106112f0576112f0611d2d565b60200101906001600160f81b031916908160001a905350828461131483600c611d43565b6020811061132457611324611d2d565b825191901a600f1690811061133b5761133b611d2d565b01602001516001600160f81b03191682611356836002611d56565b611361906003611d43565b8151811061137157611371611d2d565b60200101906001600160f81b031916908160001a90535060010161126c565b50949350505050565b60006001836040516113ab9190611c83565b9081526020016040518091039020905060005b815481101561146857828282815481106113da576113da611d2d565b90600052602060002001540361146057815482906113fa90600190611d6d565b8154811061140a5761140a611d2d565b906000526020600020015482828154811061142757611427611d2d565b90600052602060002001819055508180548061144557611445611d80565b60019003818190600052602060002001600090559055611468565b6001016113be565b50505050565b508054600082559060005260206000209081019061148c9190611588565b50565b50805461149b90611b3c565b6000825580601f106114ab575050565b601f01602090049060005260206000209081019061148c91906115a5565b82805482825590600052602060002090810192821561150f579160200282015b8281111561150f57825182906114ff9082611bc5565b50916020019190600101906114e9565b5061151b929150611588565b5090565b604051806101600160405280600081526020016060815260200160608152602001606081526020016000815260200160008152602001606081526020016060815260200160608152602001606081526020016000808111156115835761158361192f565b905290565b8082111561151b57600061159c828261148f565b50600101611588565b5b8082111561151b57600081556001016115a6565b6000602082840312156115cc57600080fd5b5035919050565b634e487b7160e01b600052604160045260246000fd5b604051601f8201601f191681016001600160401b0381118282101715611611576116116115d3565b604052919050565b600082601f83011261162a57600080fd5b81356001600160401b03811115611643576116436115d3565b611656601f8201601f19166020016115e9565b81815284602083860101111561166b57600080fd5b816020850160208301376000918101602001919091529392505050565b600082601f83011261169957600080fd5b81356001600160401b038111156116b2576116b26115d3565b8060051b6116c2602082016115e9565b918252602081850181019290810190868411156116de57600080fd5b6020860192505b838310156117245782356001600160401b0381111561170357600080fd5b611712886020838a0101611619565b835250602092830192909101906116e5565b9695505050505050565b80356001811061173d57600080fd5b919050565b6000806000806000806000806000806101408b8d03121561176257600080fd5b8a35995060208b01356001600160401b0381111561177f57600080fd5b61178b8d828e01611688565b99505060408b01356001600160401b038111156117a757600080fd5b6117b38d828e01611688565b98505060608b01356001600160401b038111156117cf57600080fd5b6117db8d828e01611619565b97505060808b0135955060a08b0135945060c08b01356001600160401b0381111561180557600080fd5b6118118d828e01611619565b94505060e08b01356001600160401b0381111561182d57600080fd5b6118398d828e01611619565b9350506101008b01356001600160401b0381111561185657600080fd5b6118628d828e01611619565b9250506118726101208c0161172e565b90509295989b9194979a5092959850565b60005b8381101561189e578181015183820152602001611886565b50506000910152565b600081518084526118bf816020860160208601611883565b601f01601f19169290920160200192915050565b600082825180855260208501945060208160051b8301016020850160005b8381101561192357601f1985840301885261190d8383516118a7565b60209889019890935091909101906001016118f1565b50909695505050505050565b634e487b7160e01b600052602160045260246000fd5b6001811061196357634e487b7160e01b600052602160045260246000fd5b9052565b805182526000602082015161016060208501526119886101608501826118d3565b9050604083015184820360408601526119a182826118d3565b915050606083015184820360608601526119bb82826118a7565b9150506080830151608085015260a083015160a085015260c083015184820360c08601526119e982826118a7565b91505060e083015184820360e0860152611a0382826118a7565b915050610100830151848203610100860152611a1f82826118a7565b915050610120830151848203610120860152611a3b82826118a7565b915050610140830151611188610140860182611945565b602081526000611a656020830184611967565b9392505050565b600060208284031215611a7e57600080fd5b81356001600160401b03811115611a9457600080fd5b611aa084828501611619565b949350505050565b6000602082016020835280845180835260408501915060408160051b86010192506020860160005b82811015611b0157603f19878603018452611aec858351611967565b94506020938401939190910190600101611ad0565b50929695505050505050565b634e487b7160e01b600052601160045260246000fd5b600060018201611b3557611b35611b0d565b5060010190565b600181811c90821680611b5057607f821691505b602082108103611b7057634e487b7160e01b600052602260045260246000fd5b50919050565b601f821115611bc057806000526020600020601f840160051c81016020851015611b9d5750805b601f840160051c820191505b81811015611bbd5760008155600101611ba9565b50505b505050565b81516001600160401b03811115611bde57611bde6115d3565b611bf281611bec8454611b3c565b84611b76565b6020601f821160018114611c265760008315611c0e5750848201515b600019600385901b1c1916600184901b178455611bbd565b600084815260208120601f198516915b82811015611c565787850151825560209485019460019092019101611c36565b5084821015611c745786840151600019600387901b60f8161c191681555b50505050600190811b01905550565b60008251611c95818460208701611883565b9190910192915050565b828152604060208201526000611aa060408301846118a7565b6000808354611cc681611b3c565b600182168015611cdd5760018114611cf257611d22565b60ff1983168652811515820286019350611d22565b86600052602060002060005b83811015611d1a57815488820152600190910190602001611cfe565b505081860193505b509195945050505050565b634e487b7160e01b600052603260045260246000fd5b808201808211156111b2576111b2611b0d565b80820281158282048414176111b2576111b2611b0d565b818103818111156111b2576111b2611b0d565b634e487b7160e01b600052603160045260246000fdfea2646970667358221220e34911280e168307d4233d589b627679457ea5658415172142bd7e49a0c4985264736f6c634300081a0033","linkReferences":{}},"methodIdentifiers":{"createOrUpdateAchievement(uint256,string[],string[],string,uint256,uint256,string,string,string,uint8)":"c8923bbd","getAchievement(uint256)":"f2ccc543","getAchievementsByProfileId(string)":"f6b8ca4a","revokeAchievement(uint256)":"2e9cbbbd"},"id":23}