{"abi":[{"type":"constructor","inputs":[],"stateMutability":"nonpayable"},{"type":"function","name":"createOrUpdateAchievement","inputs":[{"name":"id","type":"uint256","internalType":"uint256"},{"name":"key_sets","type":"string[]","internalType":"string[]"},{"name":"revoked_key_sets","type":"string[]","internalType":"string[]"},{"name":"cannonical_id","type":"string","internalType":"string"},{"name":"validFrom","type":"uint256","internalType":"uint256"},{"name":"validUntil","type":"uint256","internalType":"uint256"},{"name":"image","type":"string","internalType":"string"},{"name":"meta","type":"string","internalType":"string"},{"name":"owner_src","type":"string","internalType":"string"},{"name":"owner_type","type":"uint8","internalType":"enum AchievementCredentialRegistry.OwnerType"}],"outputs":[],"stateMutability":"nonpayable"},{"type":"function","name":"getAchievement","inputs":[{"name":"id","type":"uint256","internalType":"uint256"}],"outputs":[{"name":"","type":"tuple","internalType":"struct AchievementCredentialRegistry.Achievement","components":[{"name":"id","type":"uint256","internalType":"uint256"},{"name":"key_sets","type":"string[]","internalType":"string[]"},{"name":"revoked_key_sets","type":"string[]","internalType":"string[]"},{"name":"cannonical_id","type":"string","internalType":"string"},{"name":"validFrom","type":"uint256","internalType":"uint256"},{"name":"validUntil","type":"uint256","internalType":"uint256"},{"name":"image","type":"string","internalType":"string"},{"name":"meta","type":"string","internalType":"string"},{"name":"owner_src","type":"string","internalType":"string"},{"name":"owner_type","type":"uint8","internalType":"enum AchievementCredentialRegistry.OwnerType"}]}],"stateMutability":"view"},{"type":"function","name":"getAchievementsByOwnerId","inputs":[{"name":"ownerId","type":"string","internalType":"string"}],"outputs":[{"name":"","type":"tuple[]","internalType":"struct AchievementCredentialRegistry.Achievement[]","components":[{"name":"id","type":"uint256","internalType":"uint256"},{"name":"key_sets","type":"string[]","internalType":"string[]"},{"name":"revoked_key_sets","type":"string[]","internalType":"string[]"},{"name":"cannonical_id","type":"string","internalType":"string"},{"name":"validFrom","type":"uint256","internalType":"uint256"},{"name":"validUntil","type":"uint256","internalType":"uint256"},{"name":"image","type":"string","internalType":"string"},{"name":"meta","type":"string","internalType":"string"},{"name":"owner_src","type":"string","internalType":"string"},{"name":"owner_type","type":"uint8","internalType":"enum AchievementCredentialRegistry.OwnerType"}]}],"stateMutability":"view"},{"type":"function","name":"revokeAchievement","inputs":[{"name":"id","type":"uint256","internalType":"uint256"}],"outputs":[],"stateMutability":"nonpayable"},{"type":"event","name":"AchievementAdded","inputs":[{"name":"id","type":"uint256","indexed":false,"internalType":"uint256"},{"name":"cannonical_id","type":"string","indexed":false,"internalType":"string"}],"anonymous":false},{"type":"event","name":"AchievementRevoked","inputs":[{"name":"id","type":"uint256","indexed":false,"internalType":"uint256"}],"anonymous":false},{"type":"event","name":"AchievementUpdated","inputs":[{"name":"id","type":"uint256","indexed":false,"internalType":"uint256"},{"name":"cannonical_id","type":"string","indexed":false,"internalType":"string"}],"anonymous":false}],"bytecode":{"object":"0x6080604052348015600f57600080fd5b50600160025561176b806100246000396000f3fe608060405234801561001057600080fd5b506004361061004c5760003560e01c80632e9cbbbd146100515780635cb49daf14610066578063c8923bbd1461008f578063f2ccc543146100a2575b600080fd5b61006461005f366004611045565b6100c2565b005b610079610074366004611113565b6101dd565b6040516100869190611302565b60405180910390f35b61006461009d366004611421565b610756565b6100b56100b0366004611045565b610a74565b6040516100869190611562565b60008181526020819052604081205490036101245760405162461bcd60e51b815260206004820152601a60248201527f416368696576656d656e7420646f6573206e6f7420657869737400000000000060448201526064015b60405180910390fd5b6000818152602081905260408120818155906101436001830182610f00565b610151600283016000610f00565b61015f600383016000610f21565b6004820160009055600582016000905560068201600061017f9190610f21565b61018d600783016000610f21565b61019b600883016000610f21565b50600901805460ff191690556040518181527ff6101ae85285c0d3fbc8a8a853b81f7ec1a9c72ac3b2440cd008ce3497df2a0c9060200160405180910390a150565b606060006001836040516101f1919061157c565b908152604080519182900360209081018320805480830285018301909352828452919083018282801561024357602002820191906000526020600020905b81548152602001906001019080831161022f575b50505050509050600081516001600160401b038111156102655761026561105e565b60405190808252806020026020018201604052801561029e57816020015b61028b610f5b565b8152602001906001900390816102835790505b50905060005b825181101561074e576000808483815181106102c2576102c2611598565b60200260200101518152602001908152602001600020604051806101400160405290816000820154815260200160018201805480602002602001604051908101604052809291908181526020016000905b828210156103bf578382906000526020600020018054610332906115ae565b80601f016020809104026020016040519081016040528092919081815260200182805461035e906115ae565b80156103ab5780601f10610380576101008083540402835291602001916103ab565b820191906000526020600020905b81548152906001019060200180831161038e57829003601f168201915b505050505081526020019060010190610313565b50505050815260200160028201805480602002602001604051908101604052809291908181526020016000905b8282101561049857838290600052602060002001805461040b906115ae565b80601f0160208091040260200160405190810160405280929190818152602001828054610437906115ae565b80156104845780601f1061045957610100808354040283529160200191610484565b820191906000526020600020905b81548152906001019060200180831161046757829003601f168201915b5050505050815260200190600101906103ec565b5050505081526020016003820180546104b0906115ae565b80601f01602080910402602001604051908101604052809291908181526020018280546104dc906115ae565b80156105295780601f106104fe57610100808354040283529160200191610529565b820191906000526020600020905b81548152906001019060200180831161050c57829003601f168201915b505050505081526020016004820154815260200160058201548152602001600682018054610556906115ae565b80601f0160208091040260200160405190810160405280929190818152602001828054610582906115ae565b80156105cf5780601f106105a4576101008083540402835291602001916105cf565b820191906000526020600020905b8154815290600101906020018083116105b257829003601f168201915b505050505081526020016007820180546105e8906115ae565b80601f0160208091040260200160405190810160405280929190818152602001828054610614906115ae565b80156106615780601f1061063657610100808354040283529160200191610661565b820191906000526020600020905b81548152906001019060200180831161064457829003601f168201915b5050505050815260200160088201805461067a906115ae565b80601f01602080910402602001604051908101604052809291908181526020018280546106a6906115ae565b80156106f35780601f106106c8576101008083540402835291602001916106f3565b820191906000526020600020905b8154815290600101906020018083116106d657829003601f168201915b5050509183525050600982015460209091019060ff168015610717576107176111fb565b8015610725576107256111fb565b8152505082828151811061073b5761073b611598565b60209081029190910101526001016102a4565b509392505050565b6107608686610ed8565b6107b85760405162461bcd60e51b815260206004820152602360248201527f496e76616c696420616368696576656d656e742076616c6964697479207065726044820152621a5bd960ea1b606482015260840161011b565b856000036107c4574295505b8960000361098557600280549060006107dc836115e8565b9190505599506040518061014001604052808b81526020018a8152602001898152602001888152602001878152602001868152602001858152602001848152602001838152602001826000811115610836576108366111fb565b905260008b81526020818152604090912082518155828201518051919261086592600185019290910190610fbd565b5060408201518051610881916002840191602090910190610fbd565b5060608201516003820190610896908261165e565b506080820151600482015560a0820151600582015560c082015160068201906108bf908261165e565b5060e082015160078201906108d4908261165e565b5061010082015160088201906108ea908261165e565b5061012082015160098201805460ff1916600183801561090c5761090c6111fb565b0217905550905050600182604051610924919061157c565b908152604051908190036020908101822080546001810182556000918252919020018b90557ff17f92196cd6983957acf186d3c32425568737aac0a230c7cd0b9068addcc5d090610978908c908a9061171c565b60405180910390a1610a68565b60008a8152602081815260409091208a5190916109a99160018401918d0190610fbd565b5088516109bf90600283019060208c0190610fbd565b50600381016109ce898261165e565b506004810187905560058101869055600681016109eb868261165e565b50600781016109fa858261165e565b5060088101610a09848261165e565b5060098101805483919060ff19166001838015610a2857610a286111fb565b02179055507fc5c4d7a4dfe15f92a8edb63be8d391c47d0b521c2597bcd9fddb2ece27bac7b48b89604051610a5e92919061171c565b60405180910390a1505b50505050505050505050565b610a7c610f5b565b600082815260208181526040808320815161014081018352815481526001820180548451818702810187019095528085529195929486810194939192919084015b82821015610b69578382906000526020600020018054610adc906115ae565b80601f0160208091040260200160405190810160405280929190818152602001828054610b08906115ae565b8015610b555780601f10610b2a57610100808354040283529160200191610b55565b820191906000526020600020905b815481529060010190602001808311610b3857829003601f168201915b505050505081526020019060010190610abd565b50505050815260200160028201805480602002602001604051908101604052809291908181526020016000905b82821015610c42578382906000526020600020018054610bb5906115ae565b80601f0160208091040260200160405190810160405280929190818152602001828054610be1906115ae565b8015610c2e5780601f10610c0357610100808354040283529160200191610c2e565b820191906000526020600020905b815481529060010190602001808311610c1157829003601f168201915b505050505081526020019060010190610b96565b505050508152602001600382018054610c5a906115ae565b80601f0160208091040260200160405190810160405280929190818152602001828054610c86906115ae565b8015610cd35780601f10610ca857610100808354040283529160200191610cd3565b820191906000526020600020905b815481529060010190602001808311610cb657829003601f168201915b505050505081526020016004820154815260200160058201548152602001600682018054610d00906115ae565b80601f0160208091040260200160405190810160405280929190818152602001828054610d2c906115ae565b8015610d795780601f10610d4e57610100808354040283529160200191610d79565b820191906000526020600020905b815481529060010190602001808311610d5c57829003601f168201915b50505050508152602001600782018054610d92906115ae565b80601f0160208091040260200160405190810160405280929190818152602001828054610dbe906115ae565b8015610e0b5780601f10610de057610100808354040283529160200191610e0b565b820191906000526020600020905b815481529060010190602001808311610dee57829003601f168201915b50505050508152602001600882018054610e24906115ae565b80601f0160208091040260200160405190810160405280929190818152602001828054610e50906115ae565b8015610e9d5780601f10610e7257610100808354040283529160200191610e9d565b820191906000526020600020905b815481529060010190602001808311610e8057829003601f168201915b5050509183525050600982015460209091019060ff168015610ec157610ec16111fb565b8015610ecf57610ecf6111fb565b90525092915050565b60008115801590610ee95750818310155b15610ef657506000610efa565b5060015b92915050565b5080546000825590600052602060002090810190610f1e9190611013565b50565b508054610f2d906115ae565b6000825580601f10610f3d575050565b601f016020900490600052602060002090810190610f1e9190611030565b604051806101400160405280600081526020016060815260200160608152602001606081526020016000815260200160008152602001606081526020016060815260200160608152602001600080811115610fb857610fb86111fb565b905290565b828054828255906000526020600020908101928215611003579160200282015b828111156110035782518290610ff3908261165e565b5091602001919060010190610fdd565b5061100f929150611013565b5090565b8082111561100f5760006110278282610f21565b50600101611013565b5b8082111561100f5760008155600101611031565b60006020828403121561105757600080fd5b5035919050565b634e487b7160e01b600052604160045260246000fd5b604051601f8201601f191681016001600160401b038111828210171561109c5761109c61105e565b604052919050565b600082601f8301126110b557600080fd5b81356001600160401b038111156110ce576110ce61105e565b6110e1601f8201601f1916602001611074565b8181528460208386010111156110f657600080fd5b816020850160208301376000918101602001919091529392505050565b60006020828403121561112557600080fd5b81356001600160401b0381111561113b57600080fd5b611147848285016110a4565b949350505050565b60005b8381101561116a578181015183820152602001611152565b50506000910152565b6000815180845261118b81602086016020860161114f565b601f01601f19169290920160200192915050565b600082825180855260208501945060208160051b8301016020850160005b838110156111ef57601f198584030188526111d9838351611173565b60209889019890935091909101906001016111bd565b50909695505050505050565b634e487b7160e01b600052602160045260246000fd5b6001811061122f57634e487b7160e01b600052602160045260246000fd5b9052565b8051825260006020820151610140602085015261125461014085018261119f565b90506040830151848203604086015261126d828261119f565b915050606083015184820360608601526112878282611173565b9150506080830151608085015260a083015160a085015260c083015184820360c08601526112b58282611173565b91505060e083015184820360e08601526112cf8282611173565b9150506101008301518482036101008601526112eb8282611173565b91505061012083015161074e610120860182611211565b6000602082016020835280845180835260408501915060408160051b86010192506020860160005b8281101561135b57603f19878603018452611346858351611233565b9450602093840193919091019060010161132a565b50929695505050505050565b600082601f83011261137857600080fd5b81356001600160401b038111156113915761139161105e565b8060051b6113a160208201611074565b918252602081850181019290810190868411156113bd57600080fd5b6020860192505b838310156114035782356001600160401b038111156113e257600080fd5b6113f1886020838a01016110a4565b835250602092830192909101906113c4565b9695505050505050565b80356001811061141c57600080fd5b919050565b6000806000806000806000806000806101408b8d03121561144157600080fd5b8a35995060208b01356001600160401b0381111561145e57600080fd5b61146a8d828e01611367565b99505060408b01356001600160401b0381111561148657600080fd5b6114928d828e01611367565b98505060608b01356001600160401b038111156114ae57600080fd5b6114ba8d828e016110a4565b97505060808b0135955060a08b0135945060c08b01356001600160401b038111156114e457600080fd5b6114f08d828e016110a4565b94505060e08b01356001600160401b0381111561150c57600080fd5b6115188d828e016110a4565b9350506101008b01356001600160401b0381111561153557600080fd5b6115418d828e016110a4565b9250506115516101208c0161140d565b90509295989b9194979a5092959850565b6020815260006115756020830184611233565b9392505050565b6000825161158e81846020870161114f565b9190910192915050565b634e487b7160e01b600052603260045260246000fd5b600181811c908216806115c257607f821691505b6020821081036115e257634e487b7160e01b600052602260045260246000fd5b50919050565b60006001820161160857634e487b7160e01b600052601160045260246000fd5b5060010190565b601f82111561165957806000526020600020601f840160051c810160208510156116365750805b601f840160051c820191505b818110156116565760008155600101611642565b50505b505050565b81516001600160401b038111156116775761167761105e565b61168b8161168584546115ae565b8461160f565b6020601f8211600181146116bf57600083156116a75750848201515b600019600385901b1c1916600184901b178455611656565b600084815260208120601f198516915b828110156116ef57878501518255602094850194600190920191016116cf565b508482101561170d5786840151600019600387901b60f8161c191681555b50505050600190811b01905550565b828152604060208201526000611147604083018461117356fea2646970667358221220ab453412b82001674dd2ad88f1bc898ff2dd810fffaf11a3444e480097c5476264736f6c634300081a0033","linkReferences":{}},"methodIdentifiers":{"createOrUpdateAchievement(uint256,string[],string[],string,uint256,uint256,string,string,string,uint8)":"c8923bbd","getAchievement(uint256)":"f2ccc543","getAchievementsByOwnerId(string)":"5cb49daf","revokeAchievement(uint256)":"2e9cbbbd"},"id":23}