{"abi":[{"type":"constructor","inputs":[],"stateMutability":"nonpayable"},{"type":"function","name":"createOrUpdateAchievement","inputs":[{"name":"id","type":"uint256","internalType":"uint256"},{"name":"key_sets","type":"string[]","internalType":"string[]"},{"name":"revoked_key_sets","type":"string[]","internalType":"string[]"},{"name":"cannonical_id","type":"string","internalType":"string"},{"name":"image","type":"string","internalType":"string"},{"name":"meta","type":"string","internalType":"string"},{"name":"profile_id","type":"string","internalType":"string"},{"name":"owner_type","type":"uint8","internalType":"enum AchievementCredentialRegistry.OwnerType"}],"outputs":[{"name":"","type":"uint256","internalType":"uint256"}],"stateMutability":"nonpayable"},{"type":"function","name":"getAchievement","inputs":[{"name":"id","type":"uint256","internalType":"uint256"}],"outputs":[{"name":"","type":"tuple","internalType":"struct AchievementCredentialRegistry.Achievement","components":[{"name":"id","type":"uint256","internalType":"uint256"},{"name":"key_sets","type":"string[]","internalType":"string[]"},{"name":"revoked_key_sets","type":"string[]","internalType":"string[]"},{"name":"cannonical_id","type":"string","internalType":"string"},{"name":"image","type":"string","internalType":"string"},{"name":"meta","type":"string","internalType":"string"},{"name":"profile_id","type":"string","internalType":"string"},{"name":"owner_id","type":"string","internalType":"string"},{"name":"owner_type","type":"uint8","internalType":"enum AchievementCredentialRegistry.OwnerType"}]}],"stateMutability":"view"},{"type":"function","name":"getAchievementsByProfileId","inputs":[{"name":"profileId","type":"string","internalType":"string"}],"outputs":[{"name":"","type":"tuple[]","internalType":"struct AchievementCredentialRegistry.Achievement[]","components":[{"name":"id","type":"uint256","internalType":"uint256"},{"name":"key_sets","type":"string[]","internalType":"string[]"},{"name":"revoked_key_sets","type":"string[]","internalType":"string[]"},{"name":"cannonical_id","type":"string","internalType":"string"},{"name":"image","type":"string","internalType":"string"},{"name":"meta","type":"string","internalType":"string"},{"name":"profile_id","type":"string","internalType":"string"},{"name":"owner_id","type":"string","internalType":"string"},{"name":"owner_type","type":"uint8","internalType":"enum AchievementCredentialRegistry.OwnerType"}]}],"stateMutability":"view"},{"type":"function","name":"revokeAchievement","inputs":[{"name":"id","type":"uint256","internalType":"uint256"}],"outputs":[],"stateMutability":"nonpayable"},{"type":"event","name":"AchievementAdded","inputs":[{"name":"id","type":"uint256","indexed":false,"internalType":"uint256"},{"name":"cannonical_id","type":"string","indexed":false,"internalType":"string"}],"anonymous":false},{"type":"event","name":"AchievementRevoked","inputs":[{"name":"id","type":"uint256","indexed":false,"internalType":"uint256"}],"anonymous":false},{"type":"event","name":"AchievementUpdated","inputs":[{"name":"id","type":"uint256","indexed":false,"internalType":"uint256"},{"name":"cannonical_id","type":"string","indexed":false,"internalType":"string"}],"anonymous":false}],"bytecode":{"object":"0x6080604052348015600f57600080fd5b506001600355611c94806100246000396000f3fe608060405234801561001057600080fd5b506004361061004c5760003560e01c80632e9cbbbd146100515780636e3c1b5514610066578063f2ccc5431461008c578063f6b8ca4a146100ac575b600080fd5b61006461005f3660046114a9565b6100cc565b005b610079610074366004611631565b6101e3565b6040519081526020015b60405180910390f35b61009f61009a3660046114a9565b6105dc565b6040516100839190611914565b6100bf6100ba36600461192e565b610abe565b604051610083919061196a565b600081815260208190526040812054900361012e5760405162461bcd60e51b815260206004820152601a60248201527f416368696576656d656e7420646f6573206e6f7420657869737400000000000060448201526064015b60405180910390fd5b60008181526020819052604081208181559061014d600183018261136b565b61015b60028301600061136b565b61016960038301600061138c565b61017760048301600061138c565b61018560058301600061138c565b61019360068301600061138c565b6101a160078301600061138c565b50600801805460ff191690556040518181527ff6101ae85285c0d3fbc8a8a853b81f7ec1a9c72ac3b2440cd008ce3497df2a0c9060200160405180910390a150565b6000806101ef336110b5565b9050896000036103ac5760038054906000610209836119e5565b9190505599506040518061012001604052808b81526020018a815260200189815260200188815260200187815260200186815260200185815260200182815260200184600081111561025d5761025d611809565b905260008b81526020818152604090912082518155828201518051919261028c926001850192909101906113c6565b50604082015180516102a89160028401916020909101906113c6565b50606082015160038201906102bd9082611a87565b50608082015160048201906102d29082611a87565b5060a082015160058201906102e79082611a87565b5060c082015160068201906102fc9082611a87565b5060e082015160078201906103119082611a87565b5061010082015160088201805460ff1916600183801561033357610333611809565b021790555090505060018460405161034b9190611b45565b908152604051908190036020908101822080546001810182556000918252919020018b90557ff17f92196cd6983957acf186d3c32425568737aac0a230c7cd0b9068addcc5d09061039f908c908a90611b61565b60405180910390a16105ce565b60008060008c815260200190815260200160002090508180519060200120816007016040516103db9190611b7a565b6040518091039020146104305760405162461bcd60e51b815260206004820152601e60248201527f4f6e6c79207468652073616d65206f776e65722063616e2075706461746500006044820152606401610125565b6104c6816006018054610442906119fe565b80601f016020809104026020016040519081016040528092919081815260200182805461046e906119fe565b80156104bb5780601f10610490576101008083540402835291602001916104bb565b820191906000526020600020905b81548152906001019060200180831161049e57829003601f168201915b50505050508c611296565b89516104db90600183019060208d01906113c6565b5088516104f190600283019060208c01906113c6565b50600381016105008982611a87565b506004810161050f8882611a87565b506005810161051e8782611a87565b506006810161052d8682611a87565b506007810161053c8382611a87565b5060088101805485919060ff1916600183801561055b5761055b611809565b02179055506001856040516105709190611b45565b908152604051908190036020908101822080546001810182556000918252919020018c90557fc5c4d7a4dfe15f92a8edb63be8d391c47d0b521c2597bcd9fddb2ece27bac7b4906105c4908d908b90611b61565b60405180910390a1505b509798975050505050505050565b6105e461141c565b600082815260208181526040808320815161012081018352815481526001820180548451818702810187019095528085529195929486810194939192919084015b828210156106d1578382906000526020600020018054610644906119fe565b80601f0160208091040260200160405190810160405280929190818152602001828054610670906119fe565b80156106bd5780601f10610692576101008083540402835291602001916106bd565b820191906000526020600020905b8154815290600101906020018083116106a057829003601f168201915b505050505081526020019060010190610625565b50505050815260200160028201805480602002602001604051908101604052809291908181526020016000905b828210156107aa57838290600052602060002001805461071d906119fe565b80601f0160208091040260200160405190810160405280929190818152602001828054610749906119fe565b80156107965780601f1061076b57610100808354040283529160200191610796565b820191906000526020600020905b81548152906001019060200180831161077957829003601f168201915b5050505050815260200190600101906106fe565b5050505081526020016003820180546107c2906119fe565b80601f01602080910402602001604051908101604052809291908181526020018280546107ee906119fe565b801561083b5780601f106108105761010080835404028352916020019161083b565b820191906000526020600020905b81548152906001019060200180831161081e57829003601f168201915b50505050508152602001600482018054610854906119fe565b80601f0160208091040260200160405190810160405280929190818152602001828054610880906119fe565b80156108cd5780601f106108a2576101008083540402835291602001916108cd565b820191906000526020600020905b8154815290600101906020018083116108b057829003601f168201915b505050505081526020016005820180546108e6906119fe565b80601f0160208091040260200160405190810160405280929190818152602001828054610912906119fe565b801561095f5780601f106109345761010080835404028352916020019161095f565b820191906000526020600020905b81548152906001019060200180831161094257829003601f168201915b50505050508152602001600682018054610978906119fe565b80601f01602080910402602001604051908101604052809291908181526020018280546109a4906119fe565b80156109f15780601f106109c6576101008083540402835291602001916109f1565b820191906000526020600020905b8154815290600101906020018083116109d457829003601f168201915b50505050508152602001600782018054610a0a906119fe565b80601f0160208091040260200160405190810160405280929190818152602001828054610a36906119fe565b8015610a835780601f10610a5857610100808354040283529160200191610a83565b820191906000526020600020905b815481529060010190602001808311610a6657829003601f168201915b5050509183525050600882015460209091019060ff168015610aa757610aa7611809565b8015610ab557610ab5611809565b90525092915050565b60606000600183604051610ad29190611b45565b9081526040805191829003602090810183208054808302850183019093528284529190830182828015610b2457602002820191906000526020600020905b815481526020019060010190808311610b10575b50505050509050600081516001600160401b03811115610b4657610b466114c2565b604051908082528060200260200182016040528015610b7f57816020015b610b6c61141c565b815260200190600190039081610b645790505b50905060005b82518110156110ad57600080848381518110610ba357610ba3611bef565b60200260200101518152602001908152602001600020604051806101200160405290816000820154815260200160018201805480602002602001604051908101604052809291908181526020016000905b82821015610ca0578382906000526020600020018054610c13906119fe565b80601f0160208091040260200160405190810160405280929190818152602001828054610c3f906119fe565b8015610c8c5780601f10610c6157610100808354040283529160200191610c8c565b820191906000526020600020905b815481529060010190602001808311610c6f57829003601f168201915b505050505081526020019060010190610bf4565b50505050815260200160028201805480602002602001604051908101604052809291908181526020016000905b82821015610d79578382906000526020600020018054610cec906119fe565b80601f0160208091040260200160405190810160405280929190818152602001828054610d18906119fe565b8015610d655780601f10610d3a57610100808354040283529160200191610d65565b820191906000526020600020905b815481529060010190602001808311610d4857829003601f168201915b505050505081526020019060010190610ccd565b505050508152602001600382018054610d91906119fe565b80601f0160208091040260200160405190810160405280929190818152602001828054610dbd906119fe565b8015610e0a5780601f10610ddf57610100808354040283529160200191610e0a565b820191906000526020600020905b815481529060010190602001808311610ded57829003601f168201915b50505050508152602001600482018054610e23906119fe565b80601f0160208091040260200160405190810160405280929190818152602001828054610e4f906119fe565b8015610e9c5780601f10610e7157610100808354040283529160200191610e9c565b820191906000526020600020905b815481529060010190602001808311610e7f57829003601f168201915b50505050508152602001600582018054610eb5906119fe565b80601f0160208091040260200160405190810160405280929190818152602001828054610ee1906119fe565b8015610f2e5780601f10610f0357610100808354040283529160200191610f2e565b820191906000526020600020905b815481529060010190602001808311610f1157829003601f168201915b50505050508152602001600682018054610f47906119fe565b80601f0160208091040260200160405190810160405280929190818152602001828054610f73906119fe565b8015610fc05780601f10610f9557610100808354040283529160200191610fc0565b820191906000526020600020905b815481529060010190602001808311610fa357829003601f168201915b50505050508152602001600782018054610fd9906119fe565b80601f0160208091040260200160405190810160405280929190818152602001828054611005906119fe565b80156110525780601f1061102757610100808354040283529160200191611052565b820191906000526020600020905b81548152906001019060200180831161103557829003601f168201915b5050509183525050600882015460209091019060ff16801561107657611076611809565b801561108457611084611809565b8152505082828151811061109a5761109a611bef565b6020908102919091010152600101610b85565b509392505050565b604080518082018252601081526f181899199a1a9b1b9c1cb0b131b232b360811b60208201528151602a80825260608281019094526001600160a01b0385169291600091602082018180368337019050509050600360fc1b8160008151811061112057611120611bef565b60200101906001600160f81b031916908160001a905350600f60fb1b8160018151811061114f5761114f611bef565b60200101906001600160f81b031916908160001a90535060005b601481101561128d578260048561118184600c611c05565b6020811061119157611191611bef565b1a60f81b6001600160f81b031916901c60f81c60ff16815181106111b7576111b7611bef565b01602001516001600160f81b031916826111d2836002611c1e565b6111dd906002611c05565b815181106111ed576111ed611bef565b60200101906001600160f81b031916908160001a905350828461121183600c611c05565b6020811061122157611221611bef565b825191901a600f1690811061123857611238611bef565b01602001516001600160f81b03191682611253836002611c1e565b61125e906003611c05565b8151811061126e5761126e611bef565b60200101906001600160f81b031916908160001a905350600101611169565b50949350505050565b60006001836040516112a89190611b45565b9081526020016040518091039020905060005b815481101561136557828282815481106112d7576112d7611bef565b90600052602060002001540361135d57815482906112f790600190611c35565b8154811061130757611307611bef565b906000526020600020015482828154811061132457611324611bef565b90600052602060002001819055508180548061134257611342611c48565b60019003818190600052602060002001600090559055611365565b6001016112bb565b50505050565b50805460008255906000526020600020908101906113899190611477565b50565b508054611398906119fe565b6000825580601f106113a8575050565b601f0160209004906000526020600020908101906113899190611494565b82805482825590600052602060002090810192821561140c579160200282015b8281111561140c57825182906113fc9082611a87565b50916020019190600101906113e6565b50611418929150611477565b5090565b604051806101200160405280600081526020016060815260200160608152602001606081526020016060815260200160608152602001606081526020016060815260200160008081111561147257611472611809565b905290565b8082111561141857600061148b828261138c565b50600101611477565b5b808211156114185760008155600101611495565b6000602082840312156114bb57600080fd5b5035919050565b634e487b7160e01b600052604160045260246000fd5b604051601f8201601f191681016001600160401b0381118282101715611500576115006114c2565b604052919050565b600082601f83011261151957600080fd5b81356001600160401b03811115611532576115326114c2565b611545601f8201601f19166020016114d8565b81815284602083860101111561155a57600080fd5b816020850160208301376000918101602001919091529392505050565b600082601f83011261158857600080fd5b81356001600160401b038111156115a1576115a16114c2565b8060051b6115b1602082016114d8565b918252602081850181019290810190868411156115cd57600080fd5b6020860192505b838310156116135782356001600160401b038111156115f257600080fd5b611601886020838a0101611508565b835250602092830192909101906115d4565b9695505050505050565b80356001811061162c57600080fd5b919050565b600080600080600080600080610100898b03121561164e57600080fd5b8835975060208901356001600160401b0381111561166b57600080fd5b6116778b828c01611577565b97505060408901356001600160401b0381111561169357600080fd5b61169f8b828c01611577565b96505060608901356001600160401b038111156116bb57600080fd5b6116c78b828c01611508565b95505060808901356001600160401b038111156116e357600080fd5b6116ef8b828c01611508565b94505060a08901356001600160401b0381111561170b57600080fd5b6117178b828c01611508565b93505060c08901356001600160401b0381111561173357600080fd5b61173f8b828c01611508565b92505061174e60e08a0161161d565b90509295985092959890939650565b60005b83811015611778578181015183820152602001611760565b50506000910152565b6000815180845261179981602086016020860161175d565b601f01601f19169290920160200192915050565b600082825180855260208501945060208160051b8301016020850160005b838110156117fd57601f198584030188526117e7838351611781565b60209889019890935091909101906001016117cb565b50909695505050505050565b634e487b7160e01b600052602160045260246000fd5b6001811061183d57634e487b7160e01b600052602160045260246000fd5b9052565b805182526000602082015161012060208501526118626101208501826117ad565b90506040830151848203604086015261187b82826117ad565b915050606083015184820360608601526118958282611781565b915050608083015184820360808601526118af8282611781565b91505060a083015184820360a08601526118c98282611781565b91505060c083015184820360c08601526118e38282611781565b91505060e083015184820360e08601526118fd8282611781565b9150506101008301516110ad61010086018261181f565b6020815260006119276020830184611841565b9392505050565b60006020828403121561194057600080fd5b81356001600160401b0381111561195657600080fd5b61196284828501611508565b949350505050565b6000602082016020835280845180835260408501915060408160051b86010192506020860160005b828110156119c357603f198786030184526119ae858351611841565b94506020938401939190910190600101611992565b50929695505050505050565b634e487b7160e01b600052601160045260246000fd5b6000600182016119f7576119f76119cf565b5060010190565b600181811c90821680611a1257607f821691505b602082108103611a3257634e487b7160e01b600052602260045260246000fd5b50919050565b601f821115611a8257806000526020600020601f840160051c81016020851015611a5f5750805b601f840160051c820191505b81811015611a7f5760008155600101611a6b565b50505b505050565b81516001600160401b03811115611aa057611aa06114c2565b611ab481611aae84546119fe565b84611a38565b6020601f821160018114611ae85760008315611ad05750848201515b600019600385901b1c1916600184901b178455611a7f565b600084815260208120601f198516915b82811015611b185787850151825560209485019460019092019101611af8565b5084821015611b365786840151600019600387901b60f8161c191681555b50505050600190811b01905550565b60008251611b5781846020870161175d565b9190910192915050565b8281526040602082015260006119626040830184611781565b6000808354611b88816119fe565b600182168015611b9f5760018114611bb457611be4565b60ff1983168652811515820286019350611be4565b86600052602060002060005b83811015611bdc57815488820152600190910190602001611bc0565b505081860193505b509195945050505050565b634e487b7160e01b600052603260045260246000fd5b80820180821115611c1857611c186119cf565b92915050565b8082028115828204841417611c1857611c186119cf565b81810381811115611c1857611c186119cf565b634e487b7160e01b600052603160045260246000fdfea264697066735822122018fd18f3d547906af5653e0068f0da6fd101842766b6e389f4f04aa8b46d29f064736f6c634300081a0033","linkReferences":{}},"methodIdentifiers":{"createOrUpdateAchievement(uint256,string[],string[],string,string,string,string,uint8)":"6e3c1b55","getAchievement(uint256)":"f2ccc543","getAchievementsByProfileId(string)":"f6b8ca4a","revokeAchievement(uint256)":"2e9cbbbd"},"id":25}