{"abi":[{"type":"constructor","inputs":[],"stateMutability":"nonpayable"},{"type":"function","name":"createOrUpdateAchievement","inputs":[{"name":"id","type":"uint256","internalType":"uint256"},{"name":"key_sets","type":"string[]","internalType":"string[]"},{"name":"revoked_key_sets","type":"string[]","internalType":"string[]"},{"name":"cannonical_id","type":"string","internalType":"string"},{"name":"meta","type":"string","internalType":"string"},{"name":"profile_id","type":"string","internalType":"string"},{"name":"owner_type","type":"uint8","internalType":"enum AchievementCredentialRegistry.OwnerType"}],"outputs":[{"name":"","type":"uint256","internalType":"uint256"}],"stateMutability":"nonpayable"},{"type":"function","name":"getAchievement","inputs":[{"name":"id","type":"uint256","internalType":"uint256"}],"outputs":[{"name":"","type":"tuple","internalType":"struct AchievementCredentialRegistry.Achievement","components":[{"name":"id","type":"uint256","internalType":"uint256"},{"name":"key_sets","type":"string[]","internalType":"string[]"},{"name":"revoked_key_sets","type":"string[]","internalType":"string[]"},{"name":"cannonical_id","type":"string","internalType":"string"},{"name":"meta","type":"string","internalType":"string"},{"name":"profile_id","type":"string","internalType":"string"},{"name":"owner_id","type":"string","internalType":"string"},{"name":"owner_type","type":"uint8","internalType":"enum AchievementCredentialRegistry.OwnerType"}]}],"stateMutability":"view"},{"type":"function","name":"getAchievementsByProfileId","inputs":[{"name":"profileId","type":"string","internalType":"string"}],"outputs":[{"name":"","type":"tuple[]","internalType":"struct AchievementCredentialRegistry.Achievement[]","components":[{"name":"id","type":"uint256","internalType":"uint256"},{"name":"key_sets","type":"string[]","internalType":"string[]"},{"name":"revoked_key_sets","type":"string[]","internalType":"string[]"},{"name":"cannonical_id","type":"string","internalType":"string"},{"name":"meta","type":"string","internalType":"string"},{"name":"profile_id","type":"string","internalType":"string"},{"name":"owner_id","type":"string","internalType":"string"},{"name":"owner_type","type":"uint8","internalType":"enum AchievementCredentialRegistry.OwnerType"}]}],"stateMutability":"view"},{"type":"function","name":"revokeAchievement","inputs":[{"name":"id","type":"uint256","internalType":"uint256"}],"outputs":[],"stateMutability":"nonpayable"},{"type":"event","name":"AchievementAdded","inputs":[{"name":"id","type":"uint256","indexed":false,"internalType":"uint256"},{"name":"cannonical_id","type":"string","indexed":false,"internalType":"string"}],"anonymous":false},{"type":"event","name":"AchievementRevoked","inputs":[{"name":"id","type":"uint256","indexed":false,"internalType":"uint256"}],"anonymous":false},{"type":"event","name":"AchievementUpdated","inputs":[{"name":"id","type":"uint256","indexed":false,"internalType":"uint256"},{"name":"cannonical_id","type":"string","indexed":false,"internalType":"string"}],"anonymous":false}],"bytecode":{"object":"0x6080604052348015600f57600080fd5b506001600355611af4806100246000396000f3fe608060405234801561001057600080fd5b506004361061004c5760003560e01c806324d03cfb146100515780632e9cbbbd14610077578063f2ccc5431461008c578063f6b8ca4a146100ac575b600080fd5b61006461005f3660046114b8565b6100cc565b6040519081526020015b60405180910390f35b61008a6100853660046115be565b61049e565b005b61009f61009a3660046115be565b6105a2565b60405161006e9190611772565b6100bf6100ba36600461178c565b6109f2565b60405161006e91906117c9565b6000806100d833610f58565b90508860000361027957600380549060006100f283611844565b9190505598506040518061010001604052808a815260200189815260200188815260200187815260200186815260200185815260200182815260200184600081111561014057610140611683565b905260008a81526020818152604090912082518155828201518051919261016f9260018501929091019061120e565b506040820151805161018b91600284019160209091019061120e565b50606082015160038201906101a090826118e6565b50608082015160048201906101b590826118e6565b5060a082015160058201906101ca90826118e6565b5060c082015160068201906101df90826118e6565b5060e082015160078201805460ff1916600183801561020057610200611683565b021790555090505060018460405161021891906119a5565b908152604051908190036020908101822080546001810182556000918252919020018a90557ff17f92196cd6983957acf186d3c32425568737aac0a230c7cd0b9068addcc5d09061026c908b9089906119c1565b60405180910390a1610491565b60008060008b815260200190815260200160002090508180519060200120816006016040516102a891906119da565b6040518091039020146103025760405162461bcd60e51b815260206004820152601e60248201527f4f6e6c79207468652073616d65206f776e65722063616e20757064617465000060448201526064015b60405180910390fd5b6103988160050180546103149061185d565b80601f01602080910402602001604051908101604052809291908181526020018280546103409061185d565b801561038d5780601f106103625761010080835404028352916020019161038d565b820191906000526020600020905b81548152906001019060200180831161037057829003601f168201915b50505050508b611139565b88516103ad90600183019060208c019061120e565b5087516103c390600283019060208b019061120e565b50600381016103d288826118e6565b50600481016103e187826118e6565b50600581016103f086826118e6565b50600681016103ff83826118e6565b5060078101805485919060ff1916600183801561041e5761041e611683565b021790555060018560405161043391906119a5565b908152604051908190036020908101822080546001810182556000918252919020018b90557fc5c4d7a4dfe15f92a8edb63be8d391c47d0b521c2597bcd9fddb2ece27bac7b490610487908c908a906119c1565b60405180910390a1505b5096979650505050505050565b60008181526020819052604081205490036104fb5760405162461bcd60e51b815260206004820152601a60248201527f416368696576656d656e7420646f6573206e6f7420657869737400000000000060448201526064016102f9565b60008181526020819052604081208181559061051a6001830182611264565b610528600283016000611264565b610536600383016000611285565b610544600483016000611285565b610552600583016000611285565b610560600683016000611285565b50600701805460ff191690556040518181527ff6101ae85285c0d3fbc8a8a853b81f7ec1a9c72ac3b2440cd008ce3497df2a0c9060200160405180910390a150565b6105aa6112bf565b600082815260208181526040808320815161010081018352815481526001820180548451818702810187019095528085529195929486810194939192919084015b8282101561069757838290600052602060002001805461060a9061185d565b80601f01602080910402602001604051908101604052809291908181526020018280546106369061185d565b80156106835780601f1061065857610100808354040283529160200191610683565b820191906000526020600020905b81548152906001019060200180831161066657829003601f168201915b5050505050815260200190600101906105eb565b50505050815260200160028201805480602002602001604051908101604052809291908181526020016000905b828210156107705783829060005260206000200180546106e39061185d565b80601f016020809104026020016040519081016040528092919081815260200182805461070f9061185d565b801561075c5780601f106107315761010080835404028352916020019161075c565b820191906000526020600020905b81548152906001019060200180831161073f57829003601f168201915b5050505050815260200190600101906106c4565b5050505081526020016003820180546107889061185d565b80601f01602080910402602001604051908101604052809291908181526020018280546107b49061185d565b80156108015780601f106107d657610100808354040283529160200191610801565b820191906000526020600020905b8154815290600101906020018083116107e457829003601f168201915b5050505050815260200160048201805461081a9061185d565b80601f01602080910402602001604051908101604052809291908181526020018280546108469061185d565b80156108935780601f1061086857610100808354040283529160200191610893565b820191906000526020600020905b81548152906001019060200180831161087657829003601f168201915b505050505081526020016005820180546108ac9061185d565b80601f01602080910402602001604051908101604052809291908181526020018280546108d89061185d565b80156109255780601f106108fa57610100808354040283529160200191610925565b820191906000526020600020905b81548152906001019060200180831161090857829003601f168201915b5050505050815260200160068201805461093e9061185d565b80601f016020809104026020016040519081016040528092919081815260200182805461096a9061185d565b80156109b75780601f1061098c576101008083540402835291602001916109b7565b820191906000526020600020905b81548152906001019060200180831161099a57829003601f168201915b5050509183525050600782015460209091019060ff1680156109db576109db611683565b80156109e9576109e9611683565b90525092915050565b60606000600183604051610a0691906119a5565b9081526040805191829003602090810183208054808302850183019093528284529190830182828015610a5857602002820191906000526020600020905b815481526020019060010190808311610a44575b505050505090506000815167ffffffffffffffff811115610a7b57610a7b611345565b604051908082528060200260200182016040528015610ab457816020015b610aa16112bf565b815260200190600190039081610a995790505b50905060005b8251811015610f5057600080848381518110610ad857610ad8611a4f565b60200260200101518152602001908152602001600020604051806101000160405290816000820154815260200160018201805480602002602001604051908101604052809291908181526020016000905b82821015610bd5578382906000526020600020018054610b489061185d565b80601f0160208091040260200160405190810160405280929190818152602001828054610b749061185d565b8015610bc15780601f10610b9657610100808354040283529160200191610bc1565b820191906000526020600020905b815481529060010190602001808311610ba457829003601f168201915b505050505081526020019060010190610b29565b50505050815260200160028201805480602002602001604051908101604052809291908181526020016000905b82821015610cae578382906000526020600020018054610c219061185d565b80601f0160208091040260200160405190810160405280929190818152602001828054610c4d9061185d565b8015610c9a5780601f10610c6f57610100808354040283529160200191610c9a565b820191906000526020600020905b815481529060010190602001808311610c7d57829003601f168201915b505050505081526020019060010190610c02565b505050508152602001600382018054610cc69061185d565b80601f0160208091040260200160405190810160405280929190818152602001828054610cf29061185d565b8015610d3f5780601f10610d1457610100808354040283529160200191610d3f565b820191906000526020600020905b815481529060010190602001808311610d2257829003601f168201915b50505050508152602001600482018054610d589061185d565b80601f0160208091040260200160405190810160405280929190818152602001828054610d849061185d565b8015610dd15780601f10610da657610100808354040283529160200191610dd1565b820191906000526020600020905b815481529060010190602001808311610db457829003601f168201915b50505050508152602001600582018054610dea9061185d565b80601f0160208091040260200160405190810160405280929190818152602001828054610e169061185d565b8015610e635780601f10610e3857610100808354040283529160200191610e63565b820191906000526020600020905b815481529060010190602001808311610e4657829003601f168201915b50505050508152602001600682018054610e7c9061185d565b80601f0160208091040260200160405190810160405280929190818152602001828054610ea89061185d565b8015610ef55780601f10610eca57610100808354040283529160200191610ef5565b820191906000526020600020905b815481529060010190602001808311610ed857829003601f168201915b5050509183525050600782015460209091019060ff168015610f1957610f19611683565b8015610f2757610f27611683565b81525050828281518110610f3d57610f3d611a4f565b6020908102919091010152600101610aba565b509392505050565b604080518082018252601081526f181899199a1a9b1b9c1cb0b131b232b360811b60208201528151602a80825260608281019094526001600160a01b0385169291600091602082018180368337019050509050600360fc1b81600081518110610fc357610fc3611a4f565b60200101906001600160f81b031916908160001a905350600f60fb1b81600181518110610ff257610ff2611a4f565b60200101906001600160f81b031916908160001a90535060005b6014811015611130578260048561102484600c611a65565b6020811061103457611034611a4f565b1a60f81b6001600160f81b031916901c60f81c60ff168151811061105a5761105a611a4f565b01602001516001600160f81b03191682611075836002611a7e565b611080906002611a65565b8151811061109057611090611a4f565b60200101906001600160f81b031916908160001a90535082846110b483600c611a65565b602081106110c4576110c4611a4f565b825191901a600f169081106110db576110db611a4f565b01602001516001600160f81b031916826110f6836002611a7e565b611101906003611a65565b8151811061111157611111611a4f565b60200101906001600160f81b031916908160001a90535060010161100c565b50949350505050565b600060018360405161114b91906119a5565b9081526020016040518091039020905060005b8154811015611208578282828154811061117a5761117a611a4f565b906000526020600020015403611200578154829061119a90600190611a95565b815481106111aa576111aa611a4f565b90600052602060002001548282815481106111c7576111c7611a4f565b9060005260206000200181905550818054806111e5576111e5611aa8565b60019003818190600052602060002001600090559055611208565b60010161115e565b50505050565b828054828255906000526020600020908101928215611254579160200282015b82811115611254578251829061124490826118e6565b509160200191906001019061122e565b50611260929150611313565b5090565b50805460008255906000526020600020908101906112829190611313565b50565b5080546112919061185d565b6000825580601f106112a1575050565b601f0160209004906000526020600020908101906112829190611330565b6040518061010001604052806000815260200160608152602001606081526020016060815260200160608152602001606081526020016060815260200160008081111561130e5761130e611683565b905290565b808211156112605760006113278282611285565b50600101611313565b5b808211156112605760008155600101611331565b634e487b7160e01b600052604160045260246000fd5b604051601f8201601f1916810167ffffffffffffffff8111828210171561138457611384611345565b604052919050565b600082601f83011261139d57600080fd5b813567ffffffffffffffff8111156113b7576113b7611345565b6113ca601f8201601f191660200161135b565b8181528460208386010111156113df57600080fd5b816020850160208301376000918101602001919091529392505050565b600082601f83011261140d57600080fd5b813567ffffffffffffffff81111561142757611427611345565b8060051b6114376020820161135b565b9182526020818501810192908101908684111561145357600080fd5b6020860192505b8383101561149a57823567ffffffffffffffff81111561147957600080fd5b611488886020838a010161138c565b8352506020928301929091019061145a565b9695505050505050565b8035600181106114b357600080fd5b919050565b600080600080600080600060e0888a0312156114d357600080fd5b87359650602088013567ffffffffffffffff8111156114f157600080fd5b6114fd8a828b016113fc565b965050604088013567ffffffffffffffff81111561151a57600080fd5b6115268a828b016113fc565b955050606088013567ffffffffffffffff81111561154357600080fd5b61154f8a828b0161138c565b945050608088013567ffffffffffffffff81111561156c57600080fd5b6115788a828b0161138c565b93505060a088013567ffffffffffffffff81111561159557600080fd5b6115a18a828b0161138c565b9250506115b060c089016114a4565b905092959891949750929550565b6000602082840312156115d057600080fd5b5035919050565b60005b838110156115f25781810151838201526020016115da565b50506000910152565b600081518084526116138160208601602086016115d7565b601f01601f19169290920160200192915050565b600082825180855260208501945060208160051b8301016020850160005b8381101561167757601f198584030188526116618383516115fb565b6020988901989093509190910190600101611645565b50909695505050505050565b634e487b7160e01b600052602160045260246000fd5b600181106116b757634e487b7160e01b600052602160045260246000fd5b9052565b805182526000602082015161010060208501526116dc610100850182611627565b9050604083015184820360408601526116f58282611627565b9150506060830151848203606086015261170f82826115fb565b9150506080830151848203608086015261172982826115fb565b91505060a083015184820360a086015261174382826115fb565b91505060c083015184820360c086015261175d82826115fb565b91505060e0830151610f5060e0860182611699565b60208152600061178560208301846116bb565b9392505050565b60006020828403121561179e57600080fd5b813567ffffffffffffffff8111156117b557600080fd5b6117c18482850161138c565b949350505050565b6000602082016020835280845180835260408501915060408160051b86010192506020860160005b8281101561182257603f1987860301845261180d8583516116bb565b945060209384019391909101906001016117f1565b50929695505050505050565b634e487b7160e01b600052601160045260246000fd5b6000600182016118565761185661182e565b5060010190565b600181811c9082168061187157607f821691505b60208210810361189157634e487b7160e01b600052602260045260246000fd5b50919050565b601f8211156118e157806000526020600020601f840160051c810160208510156118be5750805b601f840160051c820191505b818110156118de57600081556001016118ca565b50505b505050565b815167ffffffffffffffff81111561190057611900611345565b6119148161190e845461185d565b84611897565b6020601f82116001811461194857600083156119305750848201515b600019600385901b1c1916600184901b1784556118de565b600084815260208120601f198516915b828110156119785787850151825560209485019460019092019101611958565b50848210156119965786840151600019600387901b60f8161c191681555b50505050600190811b01905550565b600082516119b78184602087016115d7565b9190910192915050565b8281526040602082015260006117c160408301846115fb565b60008083546119e88161185d565b6001821680156119ff5760018114611a1457611a44565b60ff1983168652811515820286019350611a44565b86600052602060002060005b83811015611a3c57815488820152600190910190602001611a20565b505081860193505b509195945050505050565b634e487b7160e01b600052603260045260246000fd5b80820180821115611a7857611a7861182e565b92915050565b8082028115828204841417611a7857611a7861182e565b81810381811115611a7857611a7861182e565b634e487b7160e01b600052603160045260246000fdfea26469706673582212209d7c6cc6ff06d3ef58fbbb4177875d5207de1dcb1bdf1a5316b41a2c6deb119164736f6c634300081a0033","linkReferences":{}},"methodIdentifiers":{"createOrUpdateAchievement(uint256,string[],string[],string,string,string,uint8)":"24d03cfb","getAchievement(uint256)":"f2ccc543","getAchievementsByProfileId(string)":"f6b8ca4a","revokeAchievement(uint256)":"2e9cbbbd"},"id":23}