{"abi":[{"type":"function","name":"getCurrentIssuerId","inputs":[],"outputs":[{"name":"","type":"uint256","internalType":"uint256"}],"stateMutability":"view"},{"type":"function","name":"getIssuerData","inputs":[{"name":"tokenId","type":"uint256","internalType":"uint256"}],"outputs":[{"name":"","type":"string","internalType":"string"}],"stateMutability":"view"},{"type":"function","name":"getIssuerOwner","inputs":[{"name":"tokenId","type":"uint256","internalType":"uint256"}],"outputs":[{"name":"","type":"address","internalType":"address"}],"stateMutability":"view"},{"type":"function","name":"nextTokenId","inputs":[],"outputs":[{"name":"","type":"uint256","internalType":"uint256"}],"stateMutability":"view"},{"type":"function","name":"registerIssuer","inputs":[{"name":"data","type":"string","internalType":"string"}],"outputs":[{"name":"","type":"uint256","internalType":"uint256"}],"stateMutability":"nonpayable"},{"type":"event","name":"IssuerRegistered","inputs":[{"name":"tokenId","type":"uint256","indexed":false,"internalType":"uint256"},{"name":"owner","type":"address","indexed":false,"internalType":"address"},{"name":"data","type":"string","indexed":false,"internalType":"string"}],"anonymous":false}],"bytecode":{"object":"0x6080604052348015600f57600080fd5b506106408061001f6000396000f3fe608060405234801561001057600080fd5b50600436106100575760003560e01c80630a0741a81461005c57806338ca5c6e146100775780636f4581dc1461009757806375794a3c146100aa5780638c05c47c146100b3575b600080fd5b6100646100de565b6040519081526020015b60405180910390f35b61008a6100853660046102ff565b6100f4565b60405161006e919061035e565b6100646100a536600461038e565b6101f5565b61006460005481565b6100c66100c13660046102ff565b610288565b6040516001600160a01b03909116815260200161006e565b600060016000546100ef919061045d565b905090565b6000818152600260205260409020546060906001600160a01b03166101575760405162461bcd60e51b8152602060048201526014602482015273151bdad95b88191bd95cc81b9bdd08195e1a5cdd60621b60448201526064015b60405180910390fd5b6000828152600160205260409020805461017090610476565b80601f016020809104026020016040519081016040528092919081815260200182805461019c90610476565b80156101e95780601f106101be576101008083540402835291602001916101e9565b820191906000526020600020905b8154815290600101906020018083116101cc57829003601f168201915b50505050509050919050565b6000805480825260016020526040822061020f84826104ff565b506000818152600260205260409081902080546001600160a01b0319163390811790915590517f6c71091cc8424bef0734b467431e82934b081336261c95cfc0ec7b8ca2d070b5916102659184919087906105be565b60405180910390a160008054908061027c836105f1565b90915550909392505050565b6000818152600260205260408120546001600160a01b03166102e35760405162461bcd60e51b8152602060048201526014602482015273151bdad95b88191bd95cc81b9bdd08195e1a5cdd60621b604482015260640161014e565b506000908152600260205260409020546001600160a01b031690565b60006020828403121561031157600080fd5b5035919050565b6000815180845260005b8181101561033e57602081850181015186830182015201610322565b506000602082860101526020601f19601f83011685010191505092915050565b6020815260006103716020830184610318565b9392505050565b634e487b7160e01b600052604160045260246000fd5b6000602082840312156103a057600080fd5b813567ffffffffffffffff8111156103b757600080fd5b8201601f810184136103c857600080fd5b803567ffffffffffffffff8111156103e2576103e2610378565b604051601f8201601f19908116603f0116810167ffffffffffffffff8111828210171561041157610411610378565b60405281815282820160200186101561042957600080fd5b81602084016020830137600091810160200191909152949350505050565b634e487b7160e01b600052601160045260246000fd5b8181038181111561047057610470610447565b92915050565b600181811c9082168061048a57607f821691505b6020821081036104aa57634e487b7160e01b600052602260045260246000fd5b50919050565b601f8211156104fa57806000526020600020601f840160051c810160208510156104d75750805b601f840160051c820191505b818110156104f757600081556001016104e3565b50505b505050565b815167ffffffffffffffff81111561051957610519610378565b61052d816105278454610476565b846104b0565b6020601f82116001811461056157600083156105495750848201515b600019600385901b1c1916600184901b1784556104f7565b600084815260208120601f198516915b828110156105915787850151825560209485019460019092019101610571565b50848210156105af5786840151600019600387901b60f8161c191681555b50505050600190811b01905550565b8381526001600160a01b03831660208201526060604082018190526000906105e890830184610318565b95945050505050565b60006001820161060357610603610447565b506001019056fea26469706673582212202661cd8ab1e2c82a39503dd89849edf61d0ceda40710c68608d20a09a33b9a4c64736f6c634300081a0033","linkReferences":{}},"methodIdentifiers":{"getCurrentIssuerId()":"0a0741a8","getIssuerData(uint256)":"38ca5c6e","getIssuerOwner(uint256)":"8c05c47c","nextTokenId()":"75794a3c","registerIssuer(string)":"6f4581dc"},"id":25}