{
  "abi": [
    {
      "type": "function",
      "name": "getCurrentTokenId",
      "inputs": [],
      "outputs": [
        {
          "name": "",
          "type": "uint256",
          "internalType": "uint256"
        }
      ],
      "stateMutability": "view"
    },
    {
      "type": "function",
      "name": "getIssuerData",
      "inputs": [],
      "outputs": [
        {
          "name": "",
          "type": "tuple[]",
          "internalType": "struct IssuerRegistry.Issuer[]",
          "components": [
            {
              "name": "id",
              "type": "string",
              "internalType": "string"
            },
            {
              "name": "tokenId",
              "type": "uint256",
              "internalType": "uint256"
            },
            {
              "name": "meta",
              "type": "string",
              "internalType": "string"
            },
            {
              "name": "owner",
              "type": "address",
              "internalType": "address"
            }
          ]
        }
      ],
      "stateMutability": "view"
    },
    {
      "type": "function",
      "name": "getIssuerDataByAddress",
      "inputs": [
        {
          "name": "owner",
          "type": "address",
          "internalType": "address"
        }
      ],
      "outputs": [
        {
          "name": "",
          "type": "tuple[]",
          "internalType": "struct IssuerRegistry.Issuer[]",
          "components": [
            {
              "name": "id",
              "type": "string",
              "internalType": "string"
            },
            {
              "name": "tokenId",
              "type": "uint256",
              "internalType": "uint256"
            },
            {
              "name": "meta",
              "type": "string",
              "internalType": "string"
            },
            {
              "name": "owner",
              "type": "address",
              "internalType": "address"
            }
          ]
        }
      ],
      "stateMutability": "view"
    },
    {
      "type": "function",
      "name": "getIssuerDataById",
      "inputs": [
        {
          "name": "id",
          "type": "string",
          "internalType": "string"
        }
      ],
      "outputs": [
        {
          "name": "",
          "type": "tuple",
          "internalType": "struct IssuerRegistry.Issuer",
          "components": [
            {
              "name": "id",
              "type": "string",
              "internalType": "string"
            },
            {
              "name": "tokenId",
              "type": "uint256",
              "internalType": "uint256"
            },
            {
              "name": "meta",
              "type": "string",
              "internalType": "string"
            },
            {
              "name": "owner",
              "type": "address",
              "internalType": "address"
            }
          ]
        }
      ],
      "stateMutability": "view"
    },
    {
      "type": "function",
      "name": "getIssuerDataByTokenId",
      "inputs": [
        {
          "name": "tokenId",
          "type": "uint256",
          "internalType": "uint256"
        }
      ],
      "outputs": [
        {
          "name": "",
          "type": "tuple",
          "internalType": "struct IssuerRegistry.Issuer",
          "components": [
            {
              "name": "id",
              "type": "string",
              "internalType": "string"
            },
            {
              "name": "tokenId",
              "type": "uint256",
              "internalType": "uint256"
            },
            {
              "name": "meta",
              "type": "string",
              "internalType": "string"
            },
            {
              "name": "owner",
              "type": "address",
              "internalType": "address"
            }
          ]
        }
      ],
      "stateMutability": "view"
    },
    {
      "type": "function",
      "name": "getIssuerOwner",
      "inputs": [
        {
          "name": "tokenId",
          "type": "uint256",
          "internalType": "uint256"
        }
      ],
      "outputs": [
        {
          "name": "",
          "type": "address",
          "internalType": "address"
        }
      ],
      "stateMutability": "view"
    },
    {
      "type": "function",
      "name": "nextTokenId",
      "inputs": [],
      "outputs": [
        {
          "name": "",
          "type": "uint256",
          "internalType": "uint256"
        }
      ],
      "stateMutability": "view"
    },
    {
      "type": "function",
      "name": "registerIssuer",
      "inputs": [
        {
          "name": "id",
          "type": "string",
          "internalType": "string"
        },
        {
          "name": "meta",
          "type": "string",
          "internalType": "string"
        }
      ],
      "outputs": [
        {
          "name": "",
          "type": "uint256",
          "internalType": "uint256"
        }
      ],
      "stateMutability": "nonpayable"
    },
    {
      "type": "event",
      "name": "IssuerRegistered",
      "inputs": [
        {
          "name": "tokenId",
          "type": "uint256",
          "indexed": false,
          "internalType": "uint256"
        },
        {
          "name": "owner",
          "type": "address",
          "indexed": false,
          "internalType": "address"
        },
        {
          "name": "data",
          "type": "string",
          "indexed": false,
          "internalType": "string"
        }
      ],
      "anonymous": false
    }
  ],
  "bytecode": {
    "object": "0x60806040526001600055348015601457600080fd5b50610f22806100246000396000f3fe608060405234801561001057600080fd5b50600436106100885760003560e01c80638c05c47c1161005b5780638c05c47c146100d8578063b26d68f81461011c578063ba876bfb1461013c578063c7f13ff51461014f57600080fd5b8063422f225f1461008d57806356189236146100ab57806364aa277d146100bd57806375794a3c146100d0575b600080fd5b610095610162565b6040516100a29190610ae4565b60405180910390f35b6000545b6040519081526020016100a2565b6100956100cb366004610b49565b610363565b6100af6105d6565b6101046100e6366004610b79565b6000908152600160205260409020600301546001600160a01b031690565b6040516001600160a01b0390911681526020016100a2565b61012f61012a366004610b79565b6105ea565b6040516100a29190610b92565b61012f61014a366004610c4a565b610753565b6100af61015d366004610c87565b6108e6565b60606000805467ffffffffffffffff81111561018057610180610ba5565b6040519080825280602002602001820160405280156101b957816020015b6101a6610a0c565b81526020019060019003908161019e5790505b50905060015b600054811161035d57600081815260016020526040908190208151608081019092528054829082906101f090610cf0565b80601f016020809104026020016040519081016040528092919081815260200182805461021c90610cf0565b80156102695780601f1061023e57610100808354040283529160200191610269565b820191906000526020600020905b81548152906001019060200180831161024c57829003601f168201915b505050505081526020016001820154815260200160028201805461028c90610cf0565b80601f01602080910402602001604051908101604052809291908181526020018280546102b890610cf0565b80156103055780601f106102da57610100808354040283529160200191610305565b820191906000526020600020905b8154815290600101906020018083116102e857829003601f168201915b5050509183525050600391909101546001600160a01b03166020909101528261032f600184610d3a565b8151811061033f5761033f610d4d565b6020026020010181905250808061035590610d63565b9150506101bf565b50919050565b6001600160a01b03811660009081526002602090815260408083208054825181850281018501909352808352606094938301828280156103c257602002820191906000526020600020905b8154815260200190600101908083116103ae575b505050505090506000815167ffffffffffffffff8111156103e5576103e5610ba5565b60405190808252806020026020018201604052801561041e57816020015b61040b610a0c565b8152602001906001900390816104035790505b50905060005b82518110156105ce576001600084838151811061044357610443610d4d565b6020026020010151815260200190815260200160002060405180608001604052908160008201805461047490610cf0565b80601f01602080910402602001604051908101604052809291908181526020018280546104a090610cf0565b80156104ed5780601f106104c2576101008083540402835291602001916104ed565b820191906000526020600020905b8154815290600101906020018083116104d057829003601f168201915b505050505081526020016001820154815260200160028201805461051090610cf0565b80601f016020809104026020016040519081016040528092919081815260200182805461053c90610cf0565b80156105895780601f1061055e57610100808354040283529160200191610589565b820191906000526020600020905b81548152906001019060200180831161056c57829003601f168201915b5050509183525050600391909101546001600160a01b031660209091015282518390839081106105bb576105bb610d4d565b6020908102919091010152600101610424565b509392505050565b600080546105e5906001610d7c565b905090565b6105f2610a0c565b6000828152600160205260409081902081516080810190925280548290829061061a90610cf0565b80601f016020809104026020016040519081016040528092919081815260200182805461064690610cf0565b80156106935780601f1061066857610100808354040283529160200191610693565b820191906000526020600020905b81548152906001019060200180831161067657829003601f168201915b50505050508152602001600182015481526020016002820180546106b690610cf0565b80601f01602080910402602001604051908101604052809291908181526020018280546106e290610cf0565b801561072f5780601f106107045761010080835404028352916020019161072f565b820191906000526020600020905b81548152906001019060200180831161071257829003601f168201915b5050509183525050600391909101546001600160a01b031660209091015292915050565b61075b610a0c565b600060038360405161076d9190610d8f565b9081526020016040518091039020549050600160008281526020019081526020016000206040518060800160405290816000820180546107ac90610cf0565b80601f01602080910402602001604051908101604052809291908181526020018280546107d890610cf0565b80156108255780601f106107fa57610100808354040283529160200191610825565b820191906000526020600020905b81548152906001019060200180831161080857829003601f168201915b505050505081526020016001820154815260200160028201805461084890610cf0565b80601f016020809104026020016040519081016040528092919081815260200182805461087490610cf0565b80156108c15780601f10610896576101008083540402835291602001916108c1565b820191906000526020600020905b8154815290600101906020018083116108a457829003601f168201915b5050509183525050600391909101546001600160a01b03166020909101529392505050565b6000805481806108f583610d63565b909155505060008054604080516080810182528681526020808201849052818301879052336060830152838552600190529220825191929181906109399082610dfa565b5060208201516001820155604082015160028201906109589082610dfa565b5060609190910151600391820180546001600160a01b0319166001600160a01b0390921691909117905533600090815260026020908152604080832080546001810182559084529190922001839055518291906109b6908790610d8f565b9081526020016040518091039020819055507f6c71091cc8424bef0734b467431e82934b081336261c95cfc0ec7b8ca2d070b58133856040516109fb93929190610eb9565b60405180910390a190505b92915050565b604051806080016040528060608152602001600081526020016060815260200160006001600160a01b031681525090565b60005b83811015610a58578181015183820152602001610a40565b50506000910152565b60008151808452610a79816020860160208601610a3d565b601f01601f19169290920160200192915050565b6000815160808452610aa26080850182610a61565b90506020830151602085015260408301518482036040860152610ac58282610a61565b6060948501516001600160a01b03169590940194909452509092915050565b6000602082016020835280845180835260408501915060408160051b86010192506020860160005b82811015610b3d57603f19878603018452610b28858351610a8d565b94506020938401939190910190600101610b0c565b50929695505050505050565b600060208284031215610b5b57600080fd5b81356001600160a01b0381168114610b7257600080fd5b9392505050565b600060208284031215610b8b57600080fd5b5035919050565b602081526000610b726020830184610a8d565b634e487b7160e01b600052604160045260246000fd5b600082601f830112610bcc57600080fd5b813567ffffffffffffffff811115610be657610be6610ba5565b604051601f8201601f19908116603f0116810167ffffffffffffffff81118282101715610c1557610c15610ba5565b604052818152838201602001851015610c2d57600080fd5b816020850160208301376000918101602001919091529392505050565b600060208284031215610c5c57600080fd5b813567ffffffffffffffff811115610c7357600080fd5b610c7f84828501610bbb565b949350505050565b60008060408385031215610c9a57600080fd5b823567ffffffffffffffff811115610cb157600080fd5b610cbd85828601610bbb565b925050602083013567ffffffffffffffff811115610cda57600080fd5b610ce685828601610bbb565b9150509250929050565b600181811c90821680610d0457607f821691505b60208210810361035d57634e487b7160e01b600052602260045260246000fd5b634e487b7160e01b600052601160045260246000fd5b81810381811115610a0657610a06610d24565b634e487b7160e01b600052603260045260246000fd5b600060018201610d7557610d75610d24565b5060010190565b80820180821115610a0657610a06610d24565b60008251610da1818460208701610a3d565b9190910192915050565b601f821115610df557806000526020600020601f840160051c81016020851015610dd25750805b601f840160051c820191505b81811015610df25760008155600101610dde565b50505b505050565b815167ffffffffffffffff811115610e1457610e14610ba5565b610e2881610e228454610cf0565b84610dab565b6020601f821160018114610e5c5760008315610e445750848201515b600019600385901b1c1916600184901b178455610df2565b600084815260208120601f198516915b82811015610e8c5787850151825560209485019460019092019101610e6c565b5084821015610eaa5786840151600019600387901b60f8161c191681555b50505050600190811b01905550565b8381526001600160a01b0383166020820152606060408201819052600090610ee390830184610a61565b9594505050505056fea2646970667358221220d08cc89cf0bee6344a2cf6ac97e0d225eb20e27ffada93d4974b18dc72f3a79f64736f6c634300081a0033",
    "linkReferences": {}
  },
  "methodIdentifiers": {
    "getCurrentTokenId()": "56189236",
    "getIssuerData()": "422f225f",
    "getIssuerDataByAddress(address)": "64aa277d",
    "getIssuerDataById(string)": "ba876bfb",
    "getIssuerDataByTokenId(uint256)": "b26d68f8",
    "getIssuerOwner(uint256)": "8c05c47c",
    "nextTokenId()": "75794a3c",
    "registerIssuer(string,string)": "c7f13ff5"
  },
  "id": 26
}