{"abi":[{"type":"function","name":"getCurrentTokenId","inputs":[],"outputs":[{"name":"","type":"uint256","internalType":"uint256"}],"stateMutability":"view"},{"type":"function","name":"getTokenData","inputs":[{"name":"tokenId","type":"uint256","internalType":"uint256"}],"outputs":[{"name":"","type":"string","internalType":"string"}],"stateMutability":"view"},{"type":"function","name":"getTokenOwner","inputs":[{"name":"tokenId","type":"uint256","internalType":"uint256"}],"outputs":[{"name":"","type":"address","internalType":"address"}],"stateMutability":"view"},{"type":"function","name":"nextTokenId","inputs":[],"outputs":[{"name":"","type":"uint256","internalType":"uint256"}],"stateMutability":"view"},{"type":"function","name":"registerToken","inputs":[{"name":"data","type":"string","internalType":"string"}],"outputs":[{"name":"","type":"uint256","internalType":"uint256"}],"stateMutability":"nonpayable"},{"type":"event","name":"TokenRegistered","inputs":[{"name":"tokenId","type":"uint256","indexed":false,"internalType":"uint256"},{"name":"owner","type":"address","indexed":false,"internalType":"address"},{"name":"data","type":"string","indexed":false,"internalType":"string"}],"anonymous":false}],"bytecode":{"object":"0x6080604052348015600f57600080fd5b506106408061001f6000396000f3fe608060405234801561001057600080fd5b50600436106100575760003560e01c8063561892361461005c57806375794a3c14610077578063a5cd761f14610080578063b09afec1146100ab578063f1b646e9146100cb575b600080fd5b6100646100de565b6040519081526020015b60405180910390f35b61006460005481565b61009361008e3660046102ff565b6100f4565b6040516001600160a01b03909116815260200161006e565b6100be6100b93660046102ff565b610170565b60405161006e919061035e565b6100646100d936600461038e565b61026c565b600060016000546100ef919061045d565b905090565b6000818152600260205260408120546001600160a01b03166101545760405162461bcd60e51b8152602060048201526014602482015273151bdad95b88191bd95cc81b9bdd08195e1a5cdd60621b60448201526064015b60405180910390fd5b506000908152600260205260409020546001600160a01b031690565b6000818152600260205260409020546060906001600160a01b03166101ce5760405162461bcd60e51b8152602060048201526014602482015273151bdad95b88191bd95cc81b9bdd08195e1a5cdd60621b604482015260640161014b565b600082815260016020526040902080546101e790610476565b80601f016020809104026020016040519081016040528092919081815260200182805461021390610476565b80156102605780601f1061023557610100808354040283529160200191610260565b820191906000526020600020905b81548152906001019060200180831161024357829003601f168201915b50505050509050919050565b6000805480825260016020526040822061028684826104ff565b506000818152600260205260409081902080546001600160a01b0319163390811790915590517ff1867756a59d1be214f67e0042937fd003957e9d6d71a06fec14dafb096f908b916102dc9184919087906105be565b60405180910390a16000805490806102f3836105f1565b90915550909392505050565b60006020828403121561031157600080fd5b5035919050565b6000815180845260005b8181101561033e57602081850181015186830182015201610322565b506000602082860101526020601f19601f83011685010191505092915050565b6020815260006103716020830184610318565b9392505050565b634e487b7160e01b600052604160045260246000fd5b6000602082840312156103a057600080fd5b813567ffffffffffffffff8111156103b757600080fd5b8201601f810184136103c857600080fd5b803567ffffffffffffffff8111156103e2576103e2610378565b604051601f8201601f19908116603f0116810167ffffffffffffffff8111828210171561041157610411610378565b60405281815282820160200186101561042957600080fd5b81602084016020830137600091810160200191909152949350505050565b634e487b7160e01b600052601160045260246000fd5b8181038181111561047057610470610447565b92915050565b600181811c9082168061048a57607f821691505b6020821081036104aa57634e487b7160e01b600052602260045260246000fd5b50919050565b601f8211156104fa57806000526020600020601f840160051c810160208510156104d75750805b601f840160051c820191505b818110156104f757600081556001016104e3565b50505b505050565b815167ffffffffffffffff81111561051957610519610378565b61052d816105278454610476565b846104b0565b6020601f82116001811461056157600083156105495750848201515b600019600385901b1c1916600184901b1784556104f7565b600084815260208120601f198516915b828110156105915787850151825560209485019460019092019101610571565b50848210156105af5786840151600019600387901b60f8161c191681555b50505050600190811b01905550565b8381526001600160a01b03831660208201526060604082018190526000906105e890830184610318565b95945050505050565b60006001820161060357610603610447565b506001019056fea2646970667358221220a8a49b2a86b0cf600b8f1c05efa8046dad5cf694b58000c9f12c2674331fb22f64736f6c634300081a0033","linkReferences":{}},"methodIdentifiers":{"getCurrentTokenId()":"56189236","getTokenData(uint256)":"b09afec1","getTokenOwner(uint256)":"a5cd761f","nextTokenId()":"75794a3c","registerToken(string)":"f1b646e9"},"id":25}